{
  "address": "0x5FbDB2315678afecb367f032d93F642f64180aa3",
  "abi": [
    {
      "inputs": [
        {
          "internalType": "uint256",
          "name": "returnTime",
          "type": "uint256"
        }
      ],
      "stateMutability": "nonpayable",
      "type": "constructor"
    },
    {
      "inputs": [
        {
          "internalType": "address",
          "name": "nftAddress",
          "type": "address"
        },
        {
          "internalType": "uint256",
          "name": "tokenId",
          "type": "uint256"
        }
      ],
      "name": "NftMarketplace__AlreadyListed",
      "type": "error"
    },
    {
      "inputs": [],
      "name": "NftMarketplace__NotAllowed",
      "type": "error"
    },
    {
      "inputs": [],
      "name": "NftMarketplace__NotApprovedForMarketplace",
      "type": "error"
    },
    {
      "inputs": [
        {
          "internalType": "address",
          "name": "nftAddress",
          "type": "address"
        },
        {
          "internalType": "uint256",
          "name": "tokenId",
          "type": "uint256"
        }
      ],
      "name": "NftMarketplace__NotInStaking",
      "type": "error"
    },
    {
      "inputs": [
        {
          "internalType": "address",
          "name": "nftAddress",
          "type": "address"
        },
        {
          "internalType": "uint256",
          "name": "tokenId",
          "type": "uint256"
        }
      ],
      "name": "NftMarketplace__NotListed",
      "type": "error"
    },
    {
      "inputs": [],
      "name": "NftMarketplace__NotOwner",
      "type": "error"
    },
    {
      "inputs": [],
      "name": "NftMarketplace__StillTimeToRecess",
      "type": "error"
    },
    {
      "anonymous": false,
      "inputs": [
        {
          "indexed": true,
          "internalType": "address",
          "name": "buyer",
          "type": "address"
        },
        {
          "indexed": true,
          "internalType": "address",
          "name": "nftAddress",
          "type": "address"
        },
        {
          "indexed": true,
          "internalType": "uint256",
          "name": "tokenId",
          "type": "uint256"
        }
      ],
      "name": "ItemBought",
      "type": "event"
    },
    {
      "anonymous": false,
      "inputs": [
        {
          "indexed": true,
          "internalType": "address",
          "name": "seller",
          "type": "address"
        },
        {
          "indexed": true,
          "internalType": "address",
          "name": "nftAddress",
          "type": "address"
        },
        {
          "indexed": true,
          "internalType": "uint256",
          "name": "tokenId",
          "type": "uint256"
        }
      ],
      "name": "ItemCancelled",
      "type": "event"
    },
    {
      "anonymous": false,
      "inputs": [
        {
          "indexed": true,
          "internalType": "address",
          "name": "seller",
          "type": "address"
        },
        {
          "indexed": true,
          "internalType": "address",
          "name": "nftAddress",
          "type": "address"
        },
        {
          "indexed": true,
          "internalType": "uint256",
          "name": "tokenId",
          "type": "uint256"
        }
      ],
      "name": "ItemListed",
      "type": "event"
    },
    {
      "anonymous": false,
      "inputs": [
        {
          "indexed": true,
          "internalType": "address",
          "name": "nftAddress",
          "type": "address"
        },
        {
          "indexed": true,
          "internalType": "uint256",
          "name": "tokenId",
          "type": "uint256"
        },
        {
          "indexed": false,
          "internalType": "address",
          "name": "owner",
          "type": "address"
        }
      ],
      "name": "TokenGetBack",
      "type": "event"
    },
    {
      "anonymous": false,
      "inputs": [
        {
          "indexed": false,
          "internalType": "address",
          "name": "from",
          "type": "address"
        },
        {
          "indexed": false,
          "internalType": "address",
          "name": "to",
          "type": "address"
        },
        {
          "indexed": true,
          "internalType": "address",
          "name": "nftAddress",
          "type": "address"
        },
        {
          "indexed": true,
          "internalType": "uint256",
          "name": "tokenId",
          "type": "uint256"
        }
      ],
      "name": "Token_Transfered",
      "type": "event"
    },
    {
      "inputs": [
        {
          "internalType": "address",
          "name": "nftAddress",
          "type": "address"
        },
        {
          "internalType": "uint256",
          "name": "tokenId",
          "type": "uint256"
        }
      ],
      "name": "buyItem",
      "outputs": [],
      "stateMutability": "nonpayable",
      "type": "function"
    },
    {
      "inputs": [
        {
          "internalType": "address",
          "name": "nftAddress",
          "type": "address"
        },
        {
          "internalType": "uint256",
          "name": "tokenId",
          "type": "uint256"
        }
      ],
      "name": "cancelListing",
      "outputs": [],
      "stateMutability": "nonpayable",
      "type": "function"
    },
    {
      "inputs": [
        {
          "internalType": "bytes",
          "name": "address_id_encoded",
          "type": "bytes"
        }
      ],
      "name": "checkUpkeep",
      "outputs": [
        {
          "internalType": "bool",
          "name": "upkeepNeeded",
          "type": "bool"
        },
        {
          "internalType": "bytes",
          "name": "performData",
          "type": "bytes"
        }
      ],
      "stateMutability": "view",
      "type": "function"
    },
    {
      "inputs": [],
      "name": "getReturnTime",
      "outputs": [
        {
          "internalType": "uint256",
          "name": "",
          "type": "uint256"
        }
      ],
      "stateMutability": "view",
      "type": "function"
    },
    {
      "inputs": [
        {
          "internalType": "address",
          "name": "nftAddress",
          "type": "address"
        },
        {
          "internalType": "uint256",
          "name": "tokenId",
          "type": "uint256"
        }
      ],
      "name": "getSeller",
      "outputs": [
        {
          "internalType": "address",
          "name": "",
          "type": "address"
        }
      ],
      "stateMutability": "view",
      "type": "function"
    },
    {
      "inputs": [
        {
          "internalType": "address",
          "name": "nftAddress",
          "type": "address"
        },
        {
          "internalType": "uint256",
          "name": "tokenId",
          "type": "uint256"
        }
      ],
      "name": "getTransaction",
      "outputs": [
        {
          "internalType": "address",
          "name": "",
          "type": "address"
        },
        {
          "internalType": "address",
          "name": "",
          "type": "address"
        }
      ],
      "stateMutability": "view",
      "type": "function"
    },
    {
      "inputs": [
        {
          "internalType": "address",
          "name": "nftAddress",
          "type": "address"
        },
        {
          "internalType": "uint256",
          "name": "tokenId",
          "type": "uint256"
        }
      ],
      "name": "listItem",
      "outputs": [],
      "stateMutability": "nonpayable",
      "type": "function"
    },
    {
      "inputs": [
        {
          "internalType": "bytes",
          "name": "encoded",
          "type": "bytes"
        }
      ],
      "name": "multiDecodeNFTData",
      "outputs": [
        {
          "internalType": "address",
          "name": "",
          "type": "address"
        },
        {
          "internalType": "uint256",
          "name": "",
          "type": "uint256"
        }
      ],
      "stateMutability": "pure",
      "type": "function"
    },
    {
      "inputs": [
        {
          "internalType": "address",
          "name": "nftAddress",
          "type": "address"
        },
        {
          "internalType": "uint256",
          "name": "tokenId",
          "type": "uint256"
        }
      ],
      "name": "multiEncodeNFTData",
      "outputs": [
        {
          "internalType": "bytes",
          "name": "",
          "type": "bytes"
        }
      ],
      "stateMutability": "pure",
      "type": "function"
    },
    {
      "inputs": [
        {
          "internalType": "bytes",
          "name": "performData",
          "type": "bytes"
        }
      ],
      "name": "performUpkeep",
      "outputs": [],
      "stateMutability": "nonpayable",
      "type": "function"
    },
    {
      "inputs": [
        {
          "internalType": "address",
          "name": "nftAddress",
          "type": "address"
        },
        {
          "internalType": "uint256",
          "name": "tokenId",
          "type": "uint256"
        }
      ],
      "name": "takeBackToken",
      "outputs": [],
      "stateMutability": "nonpayable",
      "type": "function"
    },
    {
      "inputs": [
        {
          "internalType": "address",
          "name": "nftAddress",
          "type": "address"
        },
        {
          "internalType": "uint256",
          "name": "tokenId",
          "type": "uint256"
        }
      ],
      "name": "transferTokenAfterTime",
      "outputs": [],
      "stateMutability": "nonpayable",
      "type": "function"
    }
  ],
  "transactionHash": "0x3ef3dc109353b0d45e599f794444c4abb8659db3802080d2d0d51ba6a861b371",
  "args": [
    120
  ],
  "numDeployments": 1,
  "solcInputHash": "e6955afe1cff9ad6cb8bad18139bdc7a",
  "bytecode": "0x60806040523480156200001157600080fd5b506040516200205a3803806200205a83398181016040528101906200003791906200008d565b60016000819055508060038190555050620000bf565b600080fd5b6000819050919050565b620000678162000052565b81146200007357600080fd5b50565b60008151905062000087816200005c565b92915050565b600060208284031215620000a657620000a56200004d565b5b6000620000b68482850162000076565b91505092915050565b611f8b80620000cf6000396000f3fe608060405234801561001057600080fd5b50600436106100b45760003560e01c80639f37092a116100715780639f37092a146101b3578063a43293b4146101cf578063a8423f8114610200578063b2ddee061461021e578063b8e5efcd1461023a578063cd72d09814610256576100b4565b80630cbdaa29146100b95780630f237a93146100ea578063189ecff11461011a5780634585e33b1461014a5780635e2f003b146101665780636e04ff0d14610182575b600080fd5b6100d360048036038101906100ce9190611a0d565b610272565b6040516100e1929190611ab0565b60405180910390f35b61010460048036038101906100ff9190611b31565b61029d565b6040516101119190611bf0565b60405180910390f35b610134600480360381019061012f9190611b31565b6102cf565b6040516101419190611c12565b60405180910390f35b610164600480360381019061015f9190611c8d565b61034a565b005b610180600480360381019061017b9190611b31565b610574565b005b61019c60048036038101906101979190611c8d565b610925565b6040516101aa929190611cf5565b60405180910390f35b6101cd60048036038101906101c89190611b31565b610a38565b005b6101e960048036038101906101e49190611b31565b610dfb565b6040516101f7929190611d25565b60405180910390f35b610208610efd565b6040516102159190611d4e565b60405180910390f35b61023860048036038101906102339190611b31565b610f07565b005b610254600480360381019061024f9190611b31565b6111b8565b005b610270600480360381019061026b9190611b31565b6114b3565b005b6000806000808480602001905181019061028c9190611dbc565b915091508181935093505050915091565b6060600083836040516020016102b4929190611ab0565b60405160208183030381529060405290508091505092915050565b6000600160008473ffffffffffffffffffffffffffffffffffffffff1673ffffffffffffffffffffffffffffffffffffffff168152602001908152602001600020600083815260200190815260200160002060009054906101000a900473ffffffffffffffffffffffffffffffffffffffff16905092915050565b60008061039a84848080601f016020809104026020016040519081016040528093929190818152602001838380828437600081840152601f19601f82011690508083019250505050505050610272565b915091506000600260008473ffffffffffffffffffffffffffffffffffffffff1673ffffffffffffffffffffffffffffffffffffffff1681526020019081526020016000206000838152602001908152602001600020600201549050600354816104049190611e2b565b42111561056d576000600260008573ffffffffffffffffffffffffffffffffffffffff1673ffffffffffffffffffffffffffffffffffffffff168152602001908152602001600020600084815260200190815260200160002060000160009054906101000a900473ffffffffffffffffffffffffffffffffffffffff1690506000600260008673ffffffffffffffffffffffffffffffffffffffff1673ffffffffffffffffffffffffffffffffffffffff168152602001908152602001600020600085815260200190815260200160002060010160009054906101000a900473ffffffffffffffffffffffffffffffffffffffff1690508473ffffffffffffffffffffffffffffffffffffffff166342842e0e8383876040518463ffffffff1660e01b815260040161053893929190611e5f565b600060405180830381600087803b15801561055257600080fd5b505af1158015610566573d6000803e3d6000fd5b5050505050505b5050505050565b81816000600160008473ffffffffffffffffffffffffffffffffffffffff1673ffffffffffffffffffffffffffffffffffffffff168152602001908152602001600020600083815260200190815260200160002060009054906101000a900473ffffffffffffffffffffffffffffffffffffffff16905060008073ffffffffffffffffffffffffffffffffffffffff168273ffffffffffffffffffffffffffffffffffffffff161461065f5783836040517fc2f0d709000000000000000000000000000000000000000000000000000000008152600401610656929190611ab0565b60405180910390fd5b858533600083905060008173ffffffffffffffffffffffffffffffffffffffff16636352211e856040518263ffffffff1660e01b81526004016106a29190611d4e565b602060405180830381865afa1580156106bf573d6000803e3d6000fd5b505050506040513d601f19601f820116820180604052508101906106e39190611eab565b90508273ffffffffffffffffffffffffffffffffffffffff168173ffffffffffffffffffffffffffffffffffffffff161461074a576040517f94953b6000000000000000000000000000000000000000000000000000000000815260040160405180910390fd5b60008b90503073ffffffffffffffffffffffffffffffffffffffff168173ffffffffffffffffffffffffffffffffffffffff1663081812fc8d6040518263ffffffff1660e01b815260040161079f9190611d4e565b602060405180830381865afa1580156107bc573d6000803e3d6000fd5b505050506040513d601f19601f820116820180604052508101906107e09190611eab565b73ffffffffffffffffffffffffffffffffffffffff161461082d576040517f13e7d28d00000000000000000000000000000000000000000000000000000000815260040160405180910390fd5b33600160008e73ffffffffffffffffffffffffffffffffffffffff1673ffffffffffffffffffffffffffffffffffffffff16815260200190815260200160002060008d815260200190815260200160002060006101000a81548173ffffffffffffffffffffffffffffffffffffffff021916908373ffffffffffffffffffffffffffffffffffffffff1602179055508a8c73ffffffffffffffffffffffffffffffffffffffff163373ffffffffffffffffffffffffffffffffffffffff167fe664fba7e620635adc11289eccf06ecb889c3875d377d16291a5d77292f6309160405160405180910390a4505050505050505050505050565b6000606060008061097986868080601f016020809104026020016040519081016040528093929190818152602001838380828437600081840152601f19601f82011690508083019250505050505050610272565b915091506000600260008473ffffffffffffffffffffffffffffffffffffffff1673ffffffffffffffffffffffffffffffffffffffff1681526020019081526020016000206000838152602001908152602001600020600201549050600354816109e39190611e2b565b4211945086868080601f016020809104026020016040519081016040528093929190818152602001838380828437600081840152601f19601f8201169050808301925050505050505093505050509250929050565b81816000600160008473ffffffffffffffffffffffffffffffffffffffff1673ffffffffffffffffffffffffffffffffffffffff168152602001908152602001600020600083815260200190815260200160002060009054906101000a900473ffffffffffffffffffffffffffffffffffffffff16905060008073ffffffffffffffffffffffffffffffffffffffff168273ffffffffffffffffffffffffffffffffffffffff1603610b235783836040517f6d350f22000000000000000000000000000000000000000000000000000000008152600401610b1a929190611ab0565b60405180910390fd5b610b2b61185a565b6000600160008873ffffffffffffffffffffffffffffffffffffffff1673ffffffffffffffffffffffffffffffffffffffff168152602001908152602001600020600087815260200190815260200160002060009054906101000a900473ffffffffffffffffffffffffffffffffffffffff16905080600260008973ffffffffffffffffffffffffffffffffffffffff1673ffffffffffffffffffffffffffffffffffffffff168152602001908152602001600020600088815260200190815260200160002060000160006101000a81548173ffffffffffffffffffffffffffffffffffffffff021916908373ffffffffffffffffffffffffffffffffffffffff16021790555033600260008973ffffffffffffffffffffffffffffffffffffffff1673ffffffffffffffffffffffffffffffffffffffff168152602001908152602001600020600088815260200190815260200160002060010160006101000a81548173ffffffffffffffffffffffffffffffffffffffff021916908373ffffffffffffffffffffffffffffffffffffffff16021790555042600260008973ffffffffffffffffffffffffffffffffffffffff1673ffffffffffffffffffffffffffffffffffffffff168152602001908152602001600020600088815260200190815260200160002060020181905550600160008873ffffffffffffffffffffffffffffffffffffffff1673ffffffffffffffffffffffffffffffffffffffff168152602001908152602001600020600087815260200190815260200160002060006101000a81549073ffffffffffffffffffffffffffffffffffffffff0219169055858773ffffffffffffffffffffffffffffffffffffffff163373ffffffffffffffffffffffffffffffffffffffff167f1d23a6255c78522601b841bc62d88a98b1e9a358d1b16957143effa889faa03c60405160405180910390a450610df36118a9565b505050505050565b6000806000600260008673ffffffffffffffffffffffffffffffffffffffff1673ffffffffffffffffffffffffffffffffffffffff168152602001908152602001600020600085815260200190815260200160002060000160009054906101000a900473ffffffffffffffffffffffffffffffffffffffff1690506000600260008773ffffffffffffffffffffffffffffffffffffffff1673ffffffffffffffffffffffffffffffffffffffff168152602001908152602001600020600086815260200190815260200160002060010160009054906101000a900473ffffffffffffffffffffffffffffffffffffffff16905081819350935050509250929050565b6000600354905090565b818133600083905060008173ffffffffffffffffffffffffffffffffffffffff16636352211e856040518263ffffffff1660e01b8152600401610f4a9190611d4e565b602060405180830381865afa158015610f67573d6000803e3d6000fd5b505050506040513d601f19601f82011682018060405250810190610f8b9190611eab565b90508273ffffffffffffffffffffffffffffffffffffffff168173ffffffffffffffffffffffffffffffffffffffff1614610ff2576040517f94953b6000000000000000000000000000000000000000000000000000000000815260040160405180910390fd5b86866000600160008473ffffffffffffffffffffffffffffffffffffffff1673ffffffffffffffffffffffffffffffffffffffff168152602001908152602001600020600083815260200190815260200160002060009054906101000a900473ffffffffffffffffffffffffffffffffffffffff16905060008073ffffffffffffffffffffffffffffffffffffffff168273ffffffffffffffffffffffffffffffffffffffff16036110dd5783836040517f6d350f220000000000000000000000000000000000000000000000000000000081526004016110d4929190611ab0565b60405180910390fd5b600160008c73ffffffffffffffffffffffffffffffffffffffff1673ffffffffffffffffffffffffffffffffffffffff16815260200190815260200160002060008b815260200190815260200160002060006101000a81549073ffffffffffffffffffffffffffffffffffffffff0219169055898b73ffffffffffffffffffffffffffffffffffffffff163373ffffffffffffffffffffffffffffffffffffffff167f6e08c1d889d309942730e4afa7963d0c5294a34a479f2c8cf39a953f287dcdee60405160405180910390a45050505050505050505050565b81816000600260008473ffffffffffffffffffffffffffffffffffffffff1673ffffffffffffffffffffffffffffffffffffffff1681526020019081526020016000206000838152602001908152602001600020600201549050600081036112595782826040517f06686ee6000000000000000000000000000000000000000000000000000000008152600401611250929190611ab0565b60405180910390fd5b84846000600260008473ffffffffffffffffffffffffffffffffffffffff1673ffffffffffffffffffffffffffffffffffffffff168152602001908152602001600020600083815260200190815260200160002060010160009054906101000a900473ffffffffffffffffffffffffffffffffffffffff1690508073ffffffffffffffffffffffffffffffffffffffff163373ffffffffffffffffffffffffffffffffffffffff1614611338576040517f0ea663a500000000000000000000000000000000000000000000000000000000815260040160405180910390fd5b6000600260008a73ffffffffffffffffffffffffffffffffffffffff1673ffffffffffffffffffffffffffffffffffffffff168152602001908152602001600020600089815260200190815260200160002060000160009054906101000a900473ffffffffffffffffffffffffffffffffffffffff169050600260008a73ffffffffffffffffffffffffffffffffffffffff1673ffffffffffffffffffffffffffffffffffffffff1681526020019081526020016000206000898152602001908152602001600020600080820160006101000a81549073ffffffffffffffffffffffffffffffffffffffff02191690556001820160006101000a81549073ffffffffffffffffffffffffffffffffffffffff021916905560028201600090555050878973ffffffffffffffffffffffffffffffffffffffff167f57fee1546b7cbad9e8f139b09144179145c4891f1c5cc7df3f4eff5f0f711f6b836040516114a09190611c12565b60405180910390a3505050505050505050565b81816000600260008473ffffffffffffffffffffffffffffffffffffffff1673ffffffffffffffffffffffffffffffffffffffff16815260200190815260200160002060008381526020019081526020016000206002015490506003548161151b9190611e2b565b421015611554576040517f8f9eef1a00000000000000000000000000000000000000000000000000000000815260040160405180910390fd5b84846000600260008473ffffffffffffffffffffffffffffffffffffffff1673ffffffffffffffffffffffffffffffffffffffff1681526020019081526020016000206000838152602001908152602001600020600201549050600081036115f55782826040517f06686ee60000000000000000000000000000000000000000000000000000000081526004016115ec929190611ab0565b60405180910390fd5b6000600260008a73ffffffffffffffffffffffffffffffffffffffff1673ffffffffffffffffffffffffffffffffffffffff168152602001908152602001600020600089815260200190815260200160002060000160009054906101000a900473ffffffffffffffffffffffffffffffffffffffff1690506000600260008b73ffffffffffffffffffffffffffffffffffffffff1673ffffffffffffffffffffffffffffffffffffffff16815260200190815260200160002060008a815260200190815260200160002060010160009054906101000a900473ffffffffffffffffffffffffffffffffffffffff169050600260008b73ffffffffffffffffffffffffffffffffffffffff1673ffffffffffffffffffffffffffffffffffffffff16815260200190815260200160002060008a8152602001908152602001600020600080820160006101000a81549073ffffffffffffffffffffffffffffffffffffffff02191690556001820160006101000a81549073ffffffffffffffffffffffffffffffffffffffff0219169055600282016000905550508973ffffffffffffffffffffffffffffffffffffffff166342842e0e83838c6040518463ffffffff1660e01b81526004016117cb93929190611e5f565b600060405180830381600087803b1580156117e557600080fd5b505af11580156117f9573d6000803e3d6000fd5b50505050888a73ffffffffffffffffffffffffffffffffffffffff167f69d867b641c5c3bbcb23288d575b06771ffacf13498031f2ae1a252edb64b85d8484604051611846929190611d25565b60405180910390a350505050505050505050565b60026000540361189f576040517f08c379a000000000000000000000000000000000000000000000000000000000815260040161189690611f35565b60405180910390fd5b6002600081905550565b6001600081905550565b6000604051905090565b600080fd5b600080fd5b600080fd5b600080fd5b6000601f19601f8301169050919050565b7f4e487b7100000000000000000000000000000000000000000000000000000000600052604160045260246000fd5b61191a826118d1565b810181811067ffffffffffffffff82111715611939576119386118e2565b5b80604052505050565b600061194c6118b3565b90506119588282611911565b919050565b600067ffffffffffffffff821115611978576119776118e2565b5b611981826118d1565b9050602081019050919050565b82818337600083830152505050565b60006119b06119ab8461195d565b611942565b9050828152602081018484840111156119cc576119cb6118cc565b5b6119d784828561198e565b509392505050565b600082601f8301126119f4576119f36118c7565b5b8135611a0484826020860161199d565b91505092915050565b600060208284031215611a2357611a226118bd565b5b600082013567ffffffffffffffff811115611a4157611a406118c2565b5b611a4d848285016119df565b91505092915050565b600073ffffffffffffffffffffffffffffffffffffffff82169050919050565b6000611a8182611a56565b9050919050565b611a9181611a76565b82525050565b6000819050919050565b611aaa81611a97565b82525050565b6000604082019050611ac56000830185611a88565b611ad26020830184611aa1565b9392505050565b611ae281611a76565b8114611aed57600080fd5b50565b600081359050611aff81611ad9565b92915050565b611b0e81611a97565b8114611b1957600080fd5b50565b600081359050611b2b81611b05565b92915050565b60008060408385031215611b4857611b476118bd565b5b6000611b5685828601611af0565b9250506020611b6785828601611b1c565b9150509250929050565b600081519050919050565b600082825260208201905092915050565b60005b83811015611bab578082015181840152602081019050611b90565b60008484015250505050565b6000611bc282611b71565b611bcc8185611b7c565b9350611bdc818560208601611b8d565b611be5816118d1565b840191505092915050565b60006020820190508181036000830152611c0a8184611bb7565b905092915050565b6000602082019050611c276000830184611a88565b92915050565b600080fd5b600080fd5b60008083601f840112611c4d57611c4c6118c7565b5b8235905067ffffffffffffffff811115611c6a57611c69611c2d565b5b602083019150836001820283011115611c8657611c85611c32565b5b9250929050565b60008060208385031215611ca457611ca36118bd565b5b600083013567ffffffffffffffff811115611cc257611cc16118c2565b5b611cce85828601611c37565b92509250509250929050565b60008115159050919050565b611cef81611cda565b82525050565b6000604082019050611d0a6000830185611ce6565b8181036020830152611d1c8184611bb7565b90509392505050565b6000604082019050611d3a6000830185611a88565b611d476020830184611a88565b9392505050565b6000602082019050611d636000830184611aa1565b92915050565b6000611d7482611a56565b9050919050565b611d8481611d69565b8114611d8f57600080fd5b50565b600081519050611da181611d7b565b92915050565b600081519050611db681611b05565b92915050565b60008060408385031215611dd357611dd26118bd565b5b6000611de185828601611d92565b9250506020611df285828601611da7565b9150509250929050565b7f4e487b7100000000000000000000000000000000000000000000000000000000600052601160045260246000fd5b6000611e3682611a97565b9150611e4183611a97565b9250828201905080821115611e5957611e58611dfc565b5b92915050565b6000606082019050611e746000830186611a88565b611e816020830185611a88565b611e8e6040830184611aa1565b949350505050565b600081519050611ea581611ad9565b92915050565b600060208284031215611ec157611ec06118bd565b5b6000611ecf84828501611e96565b91505092915050565b600082825260208201905092915050565b7f5265656e7472616e637947756172643a207265656e7472616e742063616c6c00600082015250565b6000611f1f601f83611ed8565b9150611f2a82611ee9565b602082019050919050565b60006020820190508181036000830152611f4e81611f12565b905091905056fea264697066735822122008099d077e67d06803220acc8e194634b57253ca116292188b1eb059286183ec64736f6c63430008120033",
  "devdoc": {
    "kind": "dev",
    "methods": {
      "performUpkeep(bytes)": {
        "details": "The input to this method should not be trusted, and the caller of the method should not even be restricted to any single registry. Anyone should be able call it, and the input should be validated, there is no guarantee that the data passed in is the performData returned from checkUpkeep. This could happen due to malicious keepers, racing keepers, or simply a state change while the performUpkeep transaction is waiting for confirmation. Always validate the data passed in.",
        "params": {
          "performData": "is the data which was passed back from the checkData simulation. If it is encoded, it can easily be decoded into other types by calling `abi.decode`. This data should not be trusted, and should be validated against the contract's current state."
        }
      }
    },
    "version": 1
  },
  "userdoc": {
    "kind": "user",
    "methods": {
      "performUpkeep(bytes)": {
        "notice": "method that is actually executed by the keepers, via the registry. The data returned by the checkUpkeep simulation will be passed into this method to actually be executed."
      }
    },
    "version": 1
  },
  "storageLayout": {
    "storage": [
      {
        "astId": 68,
        "contract": "contracts/NftMarketplace.sol:NftMarketplace",
        "label": "_status",
        "offset": 0,
        "slot": "0",
        "type": "t_uint256"
      },
      {
        "astId": 3005,
        "contract": "contracts/NftMarketplace.sol:NftMarketplace",
        "label": "s_listings",
        "offset": 0,
        "slot": "1",
        "type": "t_mapping(t_address,t_mapping(t_uint256,t_address))"
      },
      {
        "astId": 3012,
        "contract": "contracts/NftMarketplace.sol:NftMarketplace",
        "label": "s_stakings",
        "offset": 0,
        "slot": "2",
        "type": "t_mapping(t_address,t_mapping(t_uint256,t_struct(Transaction)2957_storage))"
      },
      {
        "astId": 3014,
        "contract": "contracts/NftMarketplace.sol:NftMarketplace",
        "label": "s_returnTime",
        "offset": 0,
        "slot": "3",
        "type": "t_uint256"
      }
    ],
    "types": {
      "t_address": {
        "encoding": "inplace",
        "label": "address",
        "numberOfBytes": "20"
      },
      "t_mapping(t_address,t_mapping(t_uint256,t_address))": {
        "encoding": "mapping",
        "key": "t_address",
        "label": "mapping(address => mapping(uint256 => address))",
        "numberOfBytes": "32",
        "value": "t_mapping(t_uint256,t_address)"
      },
      "t_mapping(t_address,t_mapping(t_uint256,t_struct(Transaction)2957_storage))": {
        "encoding": "mapping",
        "key": "t_address",
        "label": "mapping(address => mapping(uint256 => struct NftMarketplace.Transaction))",
        "numberOfBytes": "32",
        "value": "t_mapping(t_uint256,t_struct(Transaction)2957_storage)"
      },
      "t_mapping(t_uint256,t_address)": {
        "encoding": "mapping",
        "key": "t_uint256",
        "label": "mapping(uint256 => address)",
        "numberOfBytes": "32",
        "value": "t_address"
      },
      "t_mapping(t_uint256,t_struct(Transaction)2957_storage)": {
        "encoding": "mapping",
        "key": "t_uint256",
        "label": "mapping(uint256 => struct NftMarketplace.Transaction)",
        "numberOfBytes": "32",
        "value": "t_struct(Transaction)2957_storage"
      },
      "t_struct(Transaction)2957_storage": {
        "encoding": "inplace",
        "label": "struct NftMarketplace.Transaction",
        "members": [
          {
            "astId": 2952,
            "contract": "contracts/NftMarketplace.sol:NftMarketplace",
            "label": "seller",
            "offset": 0,
            "slot": "0",
            "type": "t_address"
          },
          {
            "astId": 2954,
            "contract": "contracts/NftMarketplace.sol:NftMarketplace",
            "label": "buyer",
            "offset": 0,
            "slot": "1",
            "type": "t_address"
          },
          {
            "astId": 2956,
            "contract": "contracts/NftMarketplace.sol:NftMarketplace",
            "label": "startTimestamp",
            "offset": 0,
            "slot": "2",
            "type": "t_uint256"
          }
        ],
        "numberOfBytes": "96"
      },
      "t_uint256": {
        "encoding": "inplace",
        "label": "uint256",
        "numberOfBytes": "32"
      }
    }
  }
}