{
  "address": "0xe7f1725E7734CE288F8367e1Bb143E90bb3F0512",
  "abi": [
    {
      "inputs": [
        {
          "internalType": "string",
          "name": "tokenUri",
          "type": "string"
        }
      ],
      "stateMutability": "nonpayable",
      "type": "constructor"
    },
    {
      "inputs": [],
      "name": "ERC721Metadata__URI_QueryFor_NonExistentToken",
      "type": "error"
    },
    {
      "inputs": [],
      "name": "ProductNft__NotOwner",
      "type": "error"
    },
    {
      "anonymous": false,
      "inputs": [
        {
          "indexed": true,
          "internalType": "address",
          "name": "owner",
          "type": "address"
        },
        {
          "indexed": true,
          "internalType": "address",
          "name": "approved",
          "type": "address"
        },
        {
          "indexed": true,
          "internalType": "uint256",
          "name": "tokenId",
          "type": "uint256"
        }
      ],
      "name": "Approval",
      "type": "event"
    },
    {
      "anonymous": false,
      "inputs": [
        {
          "indexed": true,
          "internalType": "address",
          "name": "owner",
          "type": "address"
        },
        {
          "indexed": true,
          "internalType": "address",
          "name": "operator",
          "type": "address"
        },
        {
          "indexed": false,
          "internalType": "bool",
          "name": "approved",
          "type": "bool"
        }
      ],
      "name": "ApprovalForAll",
      "type": "event"
    },
    {
      "anonymous": false,
      "inputs": [
        {
          "indexed": true,
          "internalType": "uint256",
          "name": "tokenId",
          "type": "uint256"
        },
        {
          "indexed": true,
          "internalType": "address",
          "name": "firstOwner",
          "type": "address"
        }
      ],
      "name": "MintedNFT",
      "type": "event"
    },
    {
      "anonymous": false,
      "inputs": [
        {
          "indexed": true,
          "internalType": "address",
          "name": "from",
          "type": "address"
        },
        {
          "indexed": true,
          "internalType": "address",
          "name": "to",
          "type": "address"
        },
        {
          "indexed": true,
          "internalType": "uint256",
          "name": "tokenId",
          "type": "uint256"
        }
      ],
      "name": "Transfer",
      "type": "event"
    },
    {
      "inputs": [
        {
          "internalType": "address",
          "name": "to",
          "type": "address"
        },
        {
          "internalType": "uint256",
          "name": "tokenId",
          "type": "uint256"
        }
      ],
      "name": "approve",
      "outputs": [],
      "stateMutability": "nonpayable",
      "type": "function"
    },
    {
      "inputs": [
        {
          "internalType": "address",
          "name": "owner",
          "type": "address"
        }
      ],
      "name": "balanceOf",
      "outputs": [
        {
          "internalType": "uint256",
          "name": "",
          "type": "uint256"
        }
      ],
      "stateMutability": "view",
      "type": "function"
    },
    {
      "inputs": [
        {
          "internalType": "uint256",
          "name": "tokenId",
          "type": "uint256"
        }
      ],
      "name": "getApproved",
      "outputs": [
        {
          "internalType": "address",
          "name": "",
          "type": "address"
        }
      ],
      "stateMutability": "view",
      "type": "function"
    },
    {
      "inputs": [
        {
          "internalType": "uint256",
          "name": "tokenId",
          "type": "uint256"
        }
      ],
      "name": "getNftOwner",
      "outputs": [
        {
          "internalType": "address",
          "name": "",
          "type": "address"
        }
      ],
      "stateMutability": "view",
      "type": "function"
    },
    {
      "inputs": [],
      "name": "getTokenUri",
      "outputs": [
        {
          "internalType": "string",
          "name": "",
          "type": "string"
        }
      ],
      "stateMutability": "view",
      "type": "function"
    },
    {
      "inputs": [
        {
          "internalType": "address",
          "name": "owner",
          "type": "address"
        },
        {
          "internalType": "address",
          "name": "operator",
          "type": "address"
        }
      ],
      "name": "isApprovedForAll",
      "outputs": [
        {
          "internalType": "bool",
          "name": "",
          "type": "bool"
        }
      ],
      "stateMutability": "view",
      "type": "function"
    },
    {
      "inputs": [],
      "name": "mintNft",
      "outputs": [],
      "stateMutability": "nonpayable",
      "type": "function"
    },
    {
      "inputs": [],
      "name": "name",
      "outputs": [
        {
          "internalType": "string",
          "name": "",
          "type": "string"
        }
      ],
      "stateMutability": "view",
      "type": "function"
    },
    {
      "inputs": [
        {
          "internalType": "uint256",
          "name": "tokenId",
          "type": "uint256"
        }
      ],
      "name": "ownerOf",
      "outputs": [
        {
          "internalType": "address",
          "name": "",
          "type": "address"
        }
      ],
      "stateMutability": "view",
      "type": "function"
    },
    {
      "inputs": [
        {
          "internalType": "address",
          "name": "from",
          "type": "address"
        },
        {
          "internalType": "address",
          "name": "to",
          "type": "address"
        },
        {
          "internalType": "uint256",
          "name": "tokenId",
          "type": "uint256"
        }
      ],
      "name": "safeTransferFrom",
      "outputs": [],
      "stateMutability": "nonpayable",
      "type": "function"
    },
    {
      "inputs": [
        {
          "internalType": "address",
          "name": "from",
          "type": "address"
        },
        {
          "internalType": "address",
          "name": "to",
          "type": "address"
        },
        {
          "internalType": "uint256",
          "name": "tokenId",
          "type": "uint256"
        },
        {
          "internalType": "bytes",
          "name": "data",
          "type": "bytes"
        }
      ],
      "name": "safeTransferFrom",
      "outputs": [],
      "stateMutability": "nonpayable",
      "type": "function"
    },
    {
      "inputs": [
        {
          "internalType": "address",
          "name": "operator",
          "type": "address"
        },
        {
          "internalType": "bool",
          "name": "approved",
          "type": "bool"
        }
      ],
      "name": "setApprovalForAll",
      "outputs": [],
      "stateMutability": "nonpayable",
      "type": "function"
    },
    {
      "inputs": [
        {
          "internalType": "bytes4",
          "name": "interfaceId",
          "type": "bytes4"
        }
      ],
      "name": "supportsInterface",
      "outputs": [
        {
          "internalType": "bool",
          "name": "",
          "type": "bool"
        }
      ],
      "stateMutability": "view",
      "type": "function"
    },
    {
      "inputs": [],
      "name": "symbol",
      "outputs": [
        {
          "internalType": "string",
          "name": "",
          "type": "string"
        }
      ],
      "stateMutability": "view",
      "type": "function"
    },
    {
      "inputs": [
        {
          "internalType": "uint256",
          "name": "tokenId",
          "type": "uint256"
        }
      ],
      "name": "tokenURI",
      "outputs": [
        {
          "internalType": "string",
          "name": "",
          "type": "string"
        }
      ],
      "stateMutability": "view",
      "type": "function"
    },
    {
      "inputs": [
        {
          "internalType": "address",
          "name": "from",
          "type": "address"
        },
        {
          "internalType": "address",
          "name": "to",
          "type": "address"
        },
        {
          "internalType": "uint256",
          "name": "tokenId",
          "type": "uint256"
        }
      ],
      "name": "transferFrom",
      "outputs": [],
      "stateMutability": "nonpayable",
      "type": "function"
    }
  ],
  "transactionHash": "0xebe80fdcf4586bdd01c117d768b108725eeb75db5387176347ee87d95f551627",
  "args": [
    "ipfs://QmTAF9N4c8V1sDN4jMYjFu5rV8nAGGvrX8rQJfYHzmP2Tu"
  ],
  "numDeployments": 1,
  "solcInputHash": "352bd15d931bbef3df373d5f8955ec7a",
  "bytecode": "0x60806040523480156200001157600080fd5b5060405162002e6238038062002e628339818101604052810190620000379190620002be565b6040518060400160405280601b81526020017f547275737465642050726f6475637420436572746966696361746500000000008152506040518060400160405280600381526020017f54504300000000000000000000000000000000000000000000000000000000008152508160009081620000b491906200055a565b508060019081620000c691906200055a565b505050600060068190555033600760006101000a81548173ffffffffffffffffffffffffffffffffffffffff021916908373ffffffffffffffffffffffffffffffffffffffff16021790555080600890816200012391906200055a565b505062000641565b6000604051905090565b600080fd5b600080fd5b600080fd5b600080fd5b6000601f19601f8301169050919050565b7f4e487b7100000000000000000000000000000000000000000000000000000000600052604160045260246000fd5b620001948262000149565b810181811067ffffffffffffffff82111715620001b657620001b56200015a565b5b80604052505050565b6000620001cb6200012b565b9050620001d9828262000189565b919050565b600067ffffffffffffffff821115620001fc57620001fb6200015a565b5b620002078262000149565b9050602081019050919050565b60005b838110156200023457808201518184015260208101905062000217565b60008484015250505050565b6000620002576200025184620001de565b620001bf565b90508281526020810184848401111562000276576200027562000144565b5b6200028384828562000214565b509392505050565b600082601f830112620002a357620002a26200013f565b5b8151620002b584826020860162000240565b91505092915050565b600060208284031215620002d757620002d662000135565b5b600082015167ffffffffffffffff811115620002f857620002f76200013a565b5b62000306848285016200028b565b91505092915050565b600081519050919050565b7f4e487b7100000000000000000000000000000000000000000000000000000000600052602260045260246000fd5b600060028204905060018216806200036257607f821691505b6020821081036200037857620003776200031a565b5b50919050565b60008190508160005260206000209050919050565b60006020601f8301049050919050565b600082821b905092915050565b600060088302620003e27fffffffffffffffffffffffffffffffffffffffffffffffffffffffffffffffff82620003a3565b620003ee8683620003a3565b95508019841693508086168417925050509392505050565b6000819050919050565b6000819050919050565b60006200043b620004356200042f8462000406565b62000410565b62000406565b9050919050565b6000819050919050565b62000457836200041a565b6200046f620004668262000442565b848454620003b0565b825550505050565b600090565b6200048662000477565b620004938184846200044c565b505050565b5b81811015620004bb57620004af6000826200047c565b60018101905062000499565b5050565b601f8211156200050a57620004d4816200037e565b620004df8462000393565b81016020851015620004ef578190505b62000507620004fe8562000393565b83018262000498565b50505b505050565b600082821c905092915050565b60006200052f600019846008026200050f565b1980831691505092915050565b60006200054a83836200051c565b9150826002028217905092915050565b62000565826200030f565b67ffffffffffffffff8111156200058157620005806200015a565b5b6200058d825462000349565b6200059a828285620004bf565b600060209050601f831160018114620005d25760008415620005bd578287015190505b620005c985826200053c565b86555062000639565b601f198416620005e2866200037e565b60005b828110156200060c57848901518255600182019150602085019450602081019050620005e5565b868310156200062c578489015162000628601f8916826200051c565b8355505b6001600288020188555050505b505050505050565b61281180620006516000396000f3fe608060405234801561001057600080fd5b50600436106101005760003560e01c80638ad2d5a711610097578063c2229fea11610066578063c2229fea146102bd578063c395c8af146102c7578063c87b56dd146102e5578063e985e9c51461031557610100565b80638ad2d5a71461023757806395d89b4114610267578063a22cb46514610285578063b88d4fde146102a157610100565b806323b872dd116100d357806323b872dd1461019f57806342842e0e146101bb5780636352211e146101d757806370a082311461020757610100565b806301ffc9a71461010557806306fdde0314610135578063081812fc14610153578063095ea7b314610183575b600080fd5b61011f600480360381019061011a9190611a34565b610345565b60405161012c9190611a7c565b60405180910390f35b61013d610427565b60405161014a9190611b27565b60405180910390f35b61016d60048036038101906101689190611b7f565b6104b9565b60405161017a9190611bed565b60405180910390f35b61019d60048036038101906101989190611c34565b6104ff565b005b6101b960048036038101906101b49190611c74565b610616565b005b6101d560048036038101906101d09190611c74565b610676565b005b6101f160048036038101906101ec9190611b7f565b610696565b6040516101fe9190611bed565b60405180910390f35b610221600480360381019061021c9190611cc7565b61071c565b60405161022e9190611d03565b60405180910390f35b610251600480360381019061024c9190611b7f565b6107d3565b60405161025e9190611bed565b60405180910390f35b61026f610861565b60405161027c9190611b27565b60405180910390f35b61029f600480360381019061029a9190611d4a565b6108f3565b005b6102bb60048036038101906102b69190611ebf565b610909565b005b6102c561096b565b005b6102cf610a6c565b6040516102dc9190611b27565b60405180910390f35b6102ff60048036038101906102fa9190611b7f565b610afe565b60405161030c9190611b27565b60405180910390f35b61032f600480360381019061032a9190611f42565b610b66565b60405161033c9190611a7c565b60405180910390f35b60007f80ac58cd000000000000000000000000000000000000000000000000000000007bffffffffffffffffffffffffffffffffffffffffffffffffffffffff1916827bffffffffffffffffffffffffffffffffffffffffffffffffffffffff1916148061041057507f5b5e139f000000000000000000000000000000000000000000000000000000007bffffffffffffffffffffffffffffffffffffffffffffffffffffffff1916827bffffffffffffffffffffffffffffffffffffffffffffffffffffffff1916145b80610420575061041f82610bfa565b5b9050919050565b60606000805461043690611fb1565b80601f016020809104026020016040519081016040528092919081815260200182805461046290611fb1565b80156104af5780601f10610484576101008083540402835291602001916104af565b820191906000526020600020905b81548152906001019060200180831161049257829003601f168201915b5050505050905090565b60006104c482610c64565b6004600083815260200190815260200160002060009054906101000a900473ffffffffffffffffffffffffffffffffffffffff169050919050565b600061050a82610696565b90508073ffffffffffffffffffffffffffffffffffffffff168373ffffffffffffffffffffffffffffffffffffffff160361057a576040517f08c379a000000000000000000000000000000000000000000000000000000000815260040161057190612054565b60405180910390fd5b8073ffffffffffffffffffffffffffffffffffffffff16610599610caf565b73ffffffffffffffffffffffffffffffffffffffff1614806105c857506105c7816105c2610caf565b610b66565b5b610607576040517f08c379a00000000000000000000000000000000000000000000000000000000081526004016105fe906120e6565b60405180910390fd5b6106118383610cb7565b505050565b610627610621610caf565b82610d70565b610666576040517f08c379a000000000000000000000000000000000000000000000000000000000815260040161065d90612178565b60405180910390fd5b610671838383610e05565b505050565b61069183838360405180602001604052806000815250610909565b505050565b6000806106a2836110fe565b9050600073ffffffffffffffffffffffffffffffffffffffff168173ffffffffffffffffffffffffffffffffffffffff1603610713576040517f08c379a000000000000000000000000000000000000000000000000000000000815260040161070a906121e4565b60405180910390fd5b80915050919050565b60008073ffffffffffffffffffffffffffffffffffffffff168273ffffffffffffffffffffffffffffffffffffffff160361078c576040517f08c379a000000000000000000000000000000000000000000000000000000000815260040161078390612276565b60405180910390fd5b600360008373ffffffffffffffffffffffffffffffffffffffff1673ffffffffffffffffffffffffffffffffffffffff168152602001908152602001600020549050919050565b60008030905060008173ffffffffffffffffffffffffffffffffffffffff16636352211e856040518263ffffffff1660e01b81526004016108149190611d03565b602060405180830381865afa158015610831573d6000803e3d6000fd5b505050506040513d601f19601f8201168201806040525081019061085591906122ab565b90508092505050919050565b60606001805461087090611fb1565b80601f016020809104026020016040519081016040528092919081815260200182805461089c90611fb1565b80156108e95780601f106108be576101008083540402835291602001916108e9565b820191906000526020600020905b8154815290600101906020018083116108cc57829003601f168201915b5050505050905090565b6109056108fe610caf565b838361113b565b5050565b61091a610914610caf565b83610d70565b610959576040517f08c379a000000000000000000000000000000000000000000000000000000000815260040161095090612178565b60405180910390fd5b610965848484846112a7565b50505050565b600760009054906101000a900473ffffffffffffffffffffffffffffffffffffffff1673ffffffffffffffffffffffffffffffffffffffff163373ffffffffffffffffffffffffffffffffffffffff16146109f2576040517f9dfd6ae400000000000000000000000000000000000000000000000000000000815260040160405180910390fd5b6109fe33600654611303565b600160066000828254610a119190612307565b925050819055503373ffffffffffffffffffffffffffffffffffffffff166001600654610a3e919061233b565b7f5ffdf26340d9e4424753c57d9f7a6776e891fa3d016ae057096c126d2470a3b760405160405180910390a3565b606060088054610a7b90611fb1565b80601f0160208091040260200160405190810160405280929190818152602001828054610aa790611fb1565b8015610af45780601f10610ac957610100808354040283529160200191610af4565b820191906000526020600020905b815481529060010190602001808311610ad757829003601f168201915b5050505050905090565b6060610b0982610c64565b6000610b13611321565b90506000815111610b335760405180602001604052806000815250610b5e565b80610b3d84611338565b604051602001610b4e9291906123ab565b6040516020818303038152906040525b915050919050565b6000600560008473ffffffffffffffffffffffffffffffffffffffff1673ffffffffffffffffffffffffffffffffffffffff16815260200190815260200160002060008373ffffffffffffffffffffffffffffffffffffffff1673ffffffffffffffffffffffffffffffffffffffff16815260200190815260200160002060009054906101000a900460ff16905092915050565b60007f01ffc9a7000000000000000000000000000000000000000000000000000000007bffffffffffffffffffffffffffffffffffffffffffffffffffffffff1916827bffffffffffffffffffffffffffffffffffffffffffffffffffffffff1916149050919050565b610c6d81611406565b610cac576040517f08c379a0000000000000000000000000000000000000000000000000000000008152600401610ca3906121e4565b60405180910390fd5b50565b600033905090565b816004600083815260200190815260200160002060006101000a81548173ffffffffffffffffffffffffffffffffffffffff021916908373ffffffffffffffffffffffffffffffffffffffff160217905550808273ffffffffffffffffffffffffffffffffffffffff16610d2a83610696565b73ffffffffffffffffffffffffffffffffffffffff167f8c5be1e5ebec7d5bd14f71427d1e84f3dd0314c0f7b2291e5b200ac8c7c3b92560405160405180910390a45050565b600080610d7c83610696565b90508073ffffffffffffffffffffffffffffffffffffffff168473ffffffffffffffffffffffffffffffffffffffff161480610dbe5750610dbd8185610b66565b5b80610dfc57508373ffffffffffffffffffffffffffffffffffffffff16610de4846104b9565b73ffffffffffffffffffffffffffffffffffffffff16145b91505092915050565b8273ffffffffffffffffffffffffffffffffffffffff16610e2582610696565b73ffffffffffffffffffffffffffffffffffffffff1614610e7b576040517f08c379a0000000000000000000000000000000000000000000000000000000008152600401610e7290612441565b60405180910390fd5b600073ffffffffffffffffffffffffffffffffffffffff168273ffffffffffffffffffffffffffffffffffffffff1603610eea576040517f08c379a0000000000000000000000000000000000000000000000000000000008152600401610ee1906124d3565b60405180910390fd5b610ef78383836001611447565b8273ffffffffffffffffffffffffffffffffffffffff16610f1782610696565b73ffffffffffffffffffffffffffffffffffffffff1614610f6d576040517f08c379a0000000000000000000000000000000000000000000000000000000008152600401610f6490612441565b60405180910390fd5b6004600082815260200190815260200160002060006101000a81549073ffffffffffffffffffffffffffffffffffffffff02191690556001600360008573ffffffffffffffffffffffffffffffffffffffff1673ffffffffffffffffffffffffffffffffffffffff168152602001908152602001600020600082825403925050819055506001600360008473ffffffffffffffffffffffffffffffffffffffff1673ffffffffffffffffffffffffffffffffffffffff16815260200190815260200160002060008282540192505081905550816002600083815260200190815260200160002060006101000a81548173ffffffffffffffffffffffffffffffffffffffff021916908373ffffffffffffffffffffffffffffffffffffffff160217905550808273ffffffffffffffffffffffffffffffffffffffff168473ffffffffffffffffffffffffffffffffffffffff167fddf252ad1be2c89b69c2b068fc378daa952ba7f163c4a11628f55a4df523b3ef60405160405180910390a46110f9838383600161144d565b505050565b60006002600083815260200190815260200160002060009054906101000a900473ffffffffffffffffffffffffffffffffffffffff169050919050565b8173ffffffffffffffffffffffffffffffffffffffff168373ffffffffffffffffffffffffffffffffffffffff16036111a9576040517f08c379a00000000000000000000000000000000000000000000000000000000081526004016111a09061253f565b60405180910390fd5b80600560008573ffffffffffffffffffffffffffffffffffffffff1673ffffffffffffffffffffffffffffffffffffffff16815260200190815260200160002060008473ffffffffffffffffffffffffffffffffffffffff1673ffffffffffffffffffffffffffffffffffffffff16815260200190815260200160002060006101000a81548160ff0219169083151502179055508173ffffffffffffffffffffffffffffffffffffffff168373ffffffffffffffffffffffffffffffffffffffff167f17307eab39ab6107e8899845ad3d59bd9653f200f220920489ca2b5937696c318360405161129a9190611a7c565b60405180910390a3505050565b6112b2848484610e05565b6112be84848484611453565b6112fd576040517f08c379a00000000000000000000000000000000000000000000000000000000081526004016112f4906125d1565b60405180910390fd5b50505050565b61131d8282604051806020016040528060008152506115da565b5050565b606060405180602001604052806000815250905090565b60606000600161134784611635565b01905060008167ffffffffffffffff81111561136657611365611d94565b5b6040519080825280601f01601f1916602001820160405280156113985781602001600182028036833780820191505090505b509050600082602001820190505b6001156113fb578080600190039150507f3031323334353637383961626364656600000000000000000000000000000000600a86061a8153600a85816113ef576113ee6125f1565b5b049450600085036113a6575b819350505050919050565b60008073ffffffffffffffffffffffffffffffffffffffff16611428836110fe565b73ffffffffffffffffffffffffffffffffffffffff1614159050919050565b50505050565b50505050565b60006114748473ffffffffffffffffffffffffffffffffffffffff16611788565b156115cd578373ffffffffffffffffffffffffffffffffffffffff1663150b7a0261149d610caf565b8786866040518563ffffffff1660e01b81526004016114bf9493929190612675565b6020604051808303816000875af19250505080156114fb57506040513d601f19601f820116820180604052508101906114f891906126d6565b60015b61157d573d806000811461152b576040519150601f19603f3d011682016040523d82523d6000602084013e611530565b606091505b506000815103611575576040517f08c379a000000000000000000000000000000000000000000000000000000000815260040161156c906125d1565b60405180910390fd5b805181602001fd5b63150b7a0260e01b7bffffffffffffffffffffffffffffffffffffffffffffffffffffffff1916817bffffffffffffffffffffffffffffffffffffffffffffffffffffffff1916149150506115d2565b600190505b949350505050565b6115e483836117ab565b6115f16000848484611453565b611630576040517f08c379a0000000000000000000000000000000000000000000000000000000008152600401611627906125d1565b60405180910390fd5b505050565b600080600090507a184f03e93ff9f4daa797ed6e38ed64bf6a1f0100000000000000008310611693577a184f03e93ff9f4daa797ed6e38ed64bf6a1f0100000000000000008381611689576116886125f1565b5b0492506040810190505b6d04ee2d6d415b85acef810000000083106116d0576d04ee2d6d415b85acef810000000083816116c6576116c56125f1565b5b0492506020810190505b662386f26fc1000083106116ff57662386f26fc1000083816116f5576116f46125f1565b5b0492506010810190505b6305f5e1008310611728576305f5e100838161171e5761171d6125f1565b5b0492506008810190505b612710831061174d576127108381611743576117426125f1565b5b0492506004810190505b606483106117705760648381611766576117656125f1565b5b0492506002810190505b600a831061177f576001810190505b80915050919050565b6000808273ffffffffffffffffffffffffffffffffffffffff163b119050919050565b600073ffffffffffffffffffffffffffffffffffffffff168273ffffffffffffffffffffffffffffffffffffffff160361181a576040517f08c379a00000000000000000000000000000000000000000000000000000000081526004016118119061274f565b60405180910390fd5b61182381611406565b15611863576040517f08c379a000000000000000000000000000000000000000000000000000000000815260040161185a906127bb565b60405180910390fd5b611871600083836001611447565b61187a81611406565b156118ba576040517f08c379a00000000000000000000000000000000000000000000000000000000081526004016118b1906127bb565b60405180910390fd5b6001600360008473ffffffffffffffffffffffffffffffffffffffff1673ffffffffffffffffffffffffffffffffffffffff16815260200190815260200160002060008282540192505081905550816002600083815260200190815260200160002060006101000a81548173ffffffffffffffffffffffffffffffffffffffff021916908373ffffffffffffffffffffffffffffffffffffffff160217905550808273ffffffffffffffffffffffffffffffffffffffff16600073ffffffffffffffffffffffffffffffffffffffff167fddf252ad1be2c89b69c2b068fc378daa952ba7f163c4a11628f55a4df523b3ef60405160405180910390a46119c460008383600161144d565b5050565b6000604051905090565b600080fd5b600080fd5b60007fffffffff0000000000000000000000000000000000000000000000000000000082169050919050565b611a11816119dc565b8114611a1c57600080fd5b50565b600081359050611a2e81611a08565b92915050565b600060208284031215611a4a57611a496119d2565b5b6000611a5884828501611a1f565b91505092915050565b60008115159050919050565b611a7681611a61565b82525050565b6000602082019050611a916000830184611a6d565b92915050565b600081519050919050565b600082825260208201905092915050565b60005b83811015611ad1578082015181840152602081019050611ab6565b60008484015250505050565b6000601f19601f8301169050919050565b6000611af982611a97565b611b038185611aa2565b9350611b13818560208601611ab3565b611b1c81611add565b840191505092915050565b60006020820190508181036000830152611b418184611aee565b905092915050565b6000819050919050565b611b5c81611b49565b8114611b6757600080fd5b50565b600081359050611b7981611b53565b92915050565b600060208284031215611b9557611b946119d2565b5b6000611ba384828501611b6a565b91505092915050565b600073ffffffffffffffffffffffffffffffffffffffff82169050919050565b6000611bd782611bac565b9050919050565b611be781611bcc565b82525050565b6000602082019050611c026000830184611bde565b92915050565b611c1181611bcc565b8114611c1c57600080fd5b50565b600081359050611c2e81611c08565b92915050565b60008060408385031215611c4b57611c4a6119d2565b5b6000611c5985828601611c1f565b9250506020611c6a85828601611b6a565b9150509250929050565b600080600060608486031215611c8d57611c8c6119d2565b5b6000611c9b86828701611c1f565b9350506020611cac86828701611c1f565b9250506040611cbd86828701611b6a565b9150509250925092565b600060208284031215611cdd57611cdc6119d2565b5b6000611ceb84828501611c1f565b91505092915050565b611cfd81611b49565b82525050565b6000602082019050611d186000830184611cf4565b92915050565b611d2781611a61565b8114611d3257600080fd5b50565b600081359050611d4481611d1e565b92915050565b60008060408385031215611d6157611d606119d2565b5b6000611d6f85828601611c1f565b9250506020611d8085828601611d35565b9150509250929050565b600080fd5b600080fd5b7f4e487b7100000000000000000000000000000000000000000000000000000000600052604160045260246000fd5b611dcc82611add565b810181811067ffffffffffffffff82111715611deb57611dea611d94565b5b80604052505050565b6000611dfe6119c8565b9050611e0a8282611dc3565b919050565b600067ffffffffffffffff821115611e2a57611e29611d94565b5b611e3382611add565b9050602081019050919050565b82818337600083830152505050565b6000611e62611e5d84611e0f565b611df4565b905082815260208101848484011115611e7e57611e7d611d8f565b5b611e89848285611e40565b509392505050565b600082601f830112611ea657611ea5611d8a565b5b8135611eb6848260208601611e4f565b91505092915050565b60008060008060808587031215611ed957611ed86119d2565b5b6000611ee787828801611c1f565b9450506020611ef887828801611c1f565b9350506040611f0987828801611b6a565b925050606085013567ffffffffffffffff811115611f2a57611f296119d7565b5b611f3687828801611e91565b91505092959194509250565b60008060408385031215611f5957611f586119d2565b5b6000611f6785828601611c1f565b9250506020611f7885828601611c1f565b9150509250929050565b7f4e487b7100000000000000000000000000000000000000000000000000000000600052602260045260246000fd5b60006002820490506001821680611fc957607f821691505b602082108103611fdc57611fdb611f82565b5b50919050565b7f4552433732313a20617070726f76616c20746f2063757272656e74206f776e6560008201527f7200000000000000000000000000000000000000000000000000000000000000602082015250565b600061203e602183611aa2565b915061204982611fe2565b604082019050919050565b6000602082019050818103600083015261206d81612031565b9050919050565b7f4552433732313a20617070726f76652063616c6c6572206973206e6f7420746f60008201527f6b656e206f776e6572206f7220617070726f76656420666f7220616c6c000000602082015250565b60006120d0603d83611aa2565b91506120db82612074565b604082019050919050565b600060208201905081810360008301526120ff816120c3565b9050919050565b7f4552433732313a2063616c6c6572206973206e6f7420746f6b656e206f776e6560008201527f72206f7220617070726f76656400000000000000000000000000000000000000602082015250565b6000612162602d83611aa2565b915061216d82612106565b604082019050919050565b6000602082019050818103600083015261219181612155565b9050919050565b7f4552433732313a20696e76616c696420746f6b656e2049440000000000000000600082015250565b60006121ce601883611aa2565b91506121d982612198565b602082019050919050565b600060208201905081810360008301526121fd816121c1565b9050919050565b7f4552433732313a2061646472657373207a65726f206973206e6f74206120766160008201527f6c6964206f776e65720000000000000000000000000000000000000000000000602082015250565b6000612260602983611aa2565b915061226b82612204565b604082019050919050565b6000602082019050818103600083015261228f81612253565b9050919050565b6000815190506122a581611c08565b92915050565b6000602082840312156122c1576122c06119d2565b5b60006122cf84828501612296565b91505092915050565b7f4e487b7100000000000000000000000000000000000000000000000000000000600052601160045260246000fd5b600061231282611b49565b915061231d83611b49565b9250828201905080821115612335576123346122d8565b5b92915050565b600061234682611b49565b915061235183611b49565b9250828203905081811115612369576123686122d8565b5b92915050565b600081905092915050565b600061238582611a97565b61238f818561236f565b935061239f818560208601611ab3565b80840191505092915050565b60006123b7828561237a565b91506123c3828461237a565b91508190509392505050565b7f4552433732313a207472616e736665722066726f6d20696e636f72726563742060008201527f6f776e6572000000000000000000000000000000000000000000000000000000602082015250565b600061242b602583611aa2565b9150612436826123cf565b604082019050919050565b6000602082019050818103600083015261245a8161241e565b9050919050565b7f4552433732313a207472616e7366657220746f20746865207a65726f2061646460008201527f7265737300000000000000000000000000000000000000000000000000000000602082015250565b60006124bd602483611aa2565b91506124c882612461565b604082019050919050565b600060208201905081810360008301526124ec816124b0565b9050919050565b7f4552433732313a20617070726f766520746f2063616c6c657200000000000000600082015250565b6000612529601983611aa2565b9150612534826124f3565b602082019050919050565b600060208201905081810360008301526125588161251c565b9050919050565b7f4552433732313a207472616e7366657220746f206e6f6e20455243373231526560008201527f63656976657220696d706c656d656e7465720000000000000000000000000000602082015250565b60006125bb603283611aa2565b91506125c68261255f565b604082019050919050565b600060208201905081810360008301526125ea816125ae565b9050919050565b7f4e487b7100000000000000000000000000000000000000000000000000000000600052601260045260246000fd5b600081519050919050565b600082825260208201905092915050565b600061264782612620565b612651818561262b565b9350612661818560208601611ab3565b61266a81611add565b840191505092915050565b600060808201905061268a6000830187611bde565b6126976020830186611bde565b6126a46040830185611cf4565b81810360608301526126b6818461263c565b905095945050505050565b6000815190506126d081611a08565b92915050565b6000602082840312156126ec576126eb6119d2565b5b60006126fa848285016126c1565b91505092915050565b7f4552433732313a206d696e7420746f20746865207a65726f2061646472657373600082015250565b6000612739602083611aa2565b915061274482612703565b602082019050919050565b600060208201905081810360008301526127688161272c565b9050919050565b7f4552433732313a20746f6b656e20616c7265616479206d696e74656400000000600082015250565b60006127a5601c83611aa2565b91506127b08261276f565b602082019050919050565b600060208201905081810360008301526127d481612798565b905091905056fea264697066735822122054d6738c9fdb40de143050ccdaaf9200b6b7c520a1ea7f2d7aa22ef4068980ff64736f6c63430008120033",
  "devdoc": {
    "events": {
      "Approval(address,address,uint256)": {
        "details": "Emitted when `owner` enables `approved` to manage the `tokenId` token."
      },
      "ApprovalForAll(address,address,bool)": {
        "details": "Emitted when `owner` enables or disables (`approved`) `operator` to manage all of its assets."
      },
      "Transfer(address,address,uint256)": {
        "details": "Emitted when `tokenId` token is transferred from `from` to `to`."
      }
    },
    "kind": "dev",
    "methods": {
      "approve(address,uint256)": {
        "details": "See {IERC721-approve}."
      },
      "balanceOf(address)": {
        "details": "See {IERC721-balanceOf}."
      },
      "getApproved(uint256)": {
        "details": "See {IERC721-getApproved}."
      },
      "isApprovedForAll(address,address)": {
        "details": "See {IERC721-isApprovedForAll}."
      },
      "name()": {
        "details": "See {IERC721Metadata-name}."
      },
      "ownerOf(uint256)": {
        "details": "See {IERC721-ownerOf}."
      },
      "safeTransferFrom(address,address,uint256)": {
        "details": "See {IERC721-safeTransferFrom}."
      },
      "safeTransferFrom(address,address,uint256,bytes)": {
        "details": "See {IERC721-safeTransferFrom}."
      },
      "setApprovalForAll(address,bool)": {
        "details": "See {IERC721-setApprovalForAll}."
      },
      "supportsInterface(bytes4)": {
        "details": "See {IERC165-supportsInterface}."
      },
      "symbol()": {
        "details": "See {IERC721Metadata-symbol}."
      },
      "tokenURI(uint256)": {
        "details": "See {IERC721Metadata-tokenURI}."
      },
      "transferFrom(address,address,uint256)": {
        "details": "See {IERC721-transferFrom}."
      }
    },
    "version": 1
  },
  "userdoc": {
    "kind": "user",
    "methods": {},
    "version": 1
  },
  "storageLayout": {
    "storage": [
      {
        "astId": 90,
        "contract": "contracts/ProductNft.sol:ProductNft",
        "label": "_name",
        "offset": 0,
        "slot": "0",
        "type": "t_string_storage"
      },
      {
        "astId": 92,
        "contract": "contracts/ProductNft.sol:ProductNft",
        "label": "_symbol",
        "offset": 0,
        "slot": "1",
        "type": "t_string_storage"
      },
      {
        "astId": 96,
        "contract": "contracts/ProductNft.sol:ProductNft",
        "label": "_owners",
        "offset": 0,
        "slot": "2",
        "type": "t_mapping(t_uint256,t_address)"
      },
      {
        "astId": 100,
        "contract": "contracts/ProductNft.sol:ProductNft",
        "label": "_balances",
        "offset": 0,
        "slot": "3",
        "type": "t_mapping(t_address,t_uint256)"
      },
      {
        "astId": 104,
        "contract": "contracts/ProductNft.sol:ProductNft",
        "label": "_tokenApprovals",
        "offset": 0,
        "slot": "4",
        "type": "t_mapping(t_uint256,t_address)"
      },
      {
        "astId": 110,
        "contract": "contracts/ProductNft.sol:ProductNft",
        "label": "_operatorApprovals",
        "offset": 0,
        "slot": "5",
        "type": "t_mapping(t_address,t_mapping(t_address,t_bool))"
      },
      {
        "astId": 3324,
        "contract": "contracts/ProductNft.sol:ProductNft",
        "label": "s_tokenCounter",
        "offset": 0,
        "slot": "6",
        "type": "t_uint256"
      },
      {
        "astId": 3326,
        "contract": "contracts/ProductNft.sol:ProductNft",
        "label": "s_owner",
        "offset": 0,
        "slot": "7",
        "type": "t_address"
      },
      {
        "astId": 3328,
        "contract": "contracts/ProductNft.sol:ProductNft",
        "label": "s_tokenURI",
        "offset": 0,
        "slot": "8",
        "type": "t_string_storage"
      }
    ],
    "types": {
      "t_address": {
        "encoding": "inplace",
        "label": "address",
        "numberOfBytes": "20"
      },
      "t_bool": {
        "encoding": "inplace",
        "label": "bool",
        "numberOfBytes": "1"
      },
      "t_mapping(t_address,t_bool)": {
        "encoding": "mapping",
        "key": "t_address",
        "label": "mapping(address => bool)",
        "numberOfBytes": "32",
        "value": "t_bool"
      },
      "t_mapping(t_address,t_mapping(t_address,t_bool))": {
        "encoding": "mapping",
        "key": "t_address",
        "label": "mapping(address => mapping(address => bool))",
        "numberOfBytes": "32",
        "value": "t_mapping(t_address,t_bool)"
      },
      "t_mapping(t_address,t_uint256)": {
        "encoding": "mapping",
        "key": "t_address",
        "label": "mapping(address => uint256)",
        "numberOfBytes": "32",
        "value": "t_uint256"
      },
      "t_mapping(t_uint256,t_address)": {
        "encoding": "mapping",
        "key": "t_uint256",
        "label": "mapping(uint256 => address)",
        "numberOfBytes": "32",
        "value": "t_address"
      },
      "t_string_storage": {
        "encoding": "bytes",
        "label": "string",
        "numberOfBytes": "32"
      },
      "t_uint256": {
        "encoding": "inplace",
        "label": "uint256",
        "numberOfBytes": "32"
      }
    }
  }
}