{
  "address": "0xf55155712A7Ec639747E81f7D2C7Ac329063cF36",
  "abi": [
    {
      "inputs": [
        {
          "internalType": "string",
          "name": "imageSvg",
          "type": "string"
        }
      ],
      "stateMutability": "nonpayable",
      "type": "constructor"
    },
    {
      "inputs": [],
      "name": "ERC721Metadata__URI_QueryFor_NonExistentToken",
      "type": "error"
    },
    {
      "inputs": [],
      "name": "ProductNft__NotOwner",
      "type": "error"
    },
    {
      "anonymous": false,
      "inputs": [
        {
          "indexed": true,
          "internalType": "address",
          "name": "owner",
          "type": "address"
        },
        {
          "indexed": true,
          "internalType": "address",
          "name": "approved",
          "type": "address"
        },
        {
          "indexed": true,
          "internalType": "uint256",
          "name": "tokenId",
          "type": "uint256"
        }
      ],
      "name": "Approval",
      "type": "event"
    },
    {
      "anonymous": false,
      "inputs": [
        {
          "indexed": true,
          "internalType": "address",
          "name": "owner",
          "type": "address"
        },
        {
          "indexed": true,
          "internalType": "address",
          "name": "operator",
          "type": "address"
        },
        {
          "indexed": false,
          "internalType": "bool",
          "name": "approved",
          "type": "bool"
        }
      ],
      "name": "ApprovalForAll",
      "type": "event"
    },
    {
      "anonymous": false,
      "inputs": [
        {
          "indexed": true,
          "internalType": "uint256",
          "name": "tokenId",
          "type": "uint256"
        },
        {
          "indexed": true,
          "internalType": "address",
          "name": "firstOwner",
          "type": "address"
        }
      ],
      "name": "MintedNFT",
      "type": "event"
    },
    {
      "anonymous": false,
      "inputs": [
        {
          "indexed": true,
          "internalType": "address",
          "name": "from",
          "type": "address"
        },
        {
          "indexed": true,
          "internalType": "address",
          "name": "to",
          "type": "address"
        },
        {
          "indexed": true,
          "internalType": "uint256",
          "name": "tokenId",
          "type": "uint256"
        }
      ],
      "name": "Transfer",
      "type": "event"
    },
    {
      "inputs": [
        {
          "internalType": "address",
          "name": "to",
          "type": "address"
        },
        {
          "internalType": "uint256",
          "name": "tokenId",
          "type": "uint256"
        }
      ],
      "name": "approve",
      "outputs": [],
      "stateMutability": "nonpayable",
      "type": "function"
    },
    {
      "inputs": [
        {
          "internalType": "address",
          "name": "owner",
          "type": "address"
        }
      ],
      "name": "balanceOf",
      "outputs": [
        {
          "internalType": "uint256",
          "name": "",
          "type": "uint256"
        }
      ],
      "stateMutability": "view",
      "type": "function"
    },
    {
      "inputs": [
        {
          "internalType": "uint256",
          "name": "tokenId",
          "type": "uint256"
        }
      ],
      "name": "getApproved",
      "outputs": [
        {
          "internalType": "address",
          "name": "",
          "type": "address"
        }
      ],
      "stateMutability": "view",
      "type": "function"
    },
    {
      "inputs": [
        {
          "internalType": "address",
          "name": "owner",
          "type": "address"
        },
        {
          "internalType": "address",
          "name": "operator",
          "type": "address"
        }
      ],
      "name": "isApprovedForAll",
      "outputs": [
        {
          "internalType": "bool",
          "name": "",
          "type": "bool"
        }
      ],
      "stateMutability": "view",
      "type": "function"
    },
    {
      "inputs": [],
      "name": "mintNft",
      "outputs": [],
      "stateMutability": "nonpayable",
      "type": "function"
    },
    {
      "inputs": [],
      "name": "name",
      "outputs": [
        {
          "internalType": "string",
          "name": "",
          "type": "string"
        }
      ],
      "stateMutability": "view",
      "type": "function"
    },
    {
      "inputs": [
        {
          "internalType": "uint256",
          "name": "tokenId",
          "type": "uint256"
        }
      ],
      "name": "ownerOf",
      "outputs": [
        {
          "internalType": "address",
          "name": "",
          "type": "address"
        }
      ],
      "stateMutability": "view",
      "type": "function"
    },
    {
      "inputs": [
        {
          "internalType": "address",
          "name": "from",
          "type": "address"
        },
        {
          "internalType": "address",
          "name": "to",
          "type": "address"
        },
        {
          "internalType": "uint256",
          "name": "tokenId",
          "type": "uint256"
        }
      ],
      "name": "safeTransferFrom",
      "outputs": [],
      "stateMutability": "nonpayable",
      "type": "function"
    },
    {
      "inputs": [
        {
          "internalType": "address",
          "name": "from",
          "type": "address"
        },
        {
          "internalType": "address",
          "name": "to",
          "type": "address"
        },
        {
          "internalType": "uint256",
          "name": "tokenId",
          "type": "uint256"
        },
        {
          "internalType": "bytes",
          "name": "data",
          "type": "bytes"
        }
      ],
      "name": "safeTransferFrom",
      "outputs": [],
      "stateMutability": "nonpayable",
      "type": "function"
    },
    {
      "inputs": [
        {
          "internalType": "address",
          "name": "operator",
          "type": "address"
        },
        {
          "internalType": "bool",
          "name": "approved",
          "type": "bool"
        }
      ],
      "name": "setApprovalForAll",
      "outputs": [],
      "stateMutability": "nonpayable",
      "type": "function"
    },
    {
      "inputs": [
        {
          "internalType": "bytes4",
          "name": "interfaceId",
          "type": "bytes4"
        }
      ],
      "name": "supportsInterface",
      "outputs": [
        {
          "internalType": "bool",
          "name": "",
          "type": "bool"
        }
      ],
      "stateMutability": "view",
      "type": "function"
    },
    {
      "inputs": [
        {
          "internalType": "string",
          "name": "svg",
          "type": "string"
        }
      ],
      "name": "svgToImageURI",
      "outputs": [
        {
          "internalType": "string",
          "name": "",
          "type": "string"
        }
      ],
      "stateMutability": "pure",
      "type": "function"
    },
    {
      "inputs": [],
      "name": "symbol",
      "outputs": [
        {
          "internalType": "string",
          "name": "",
          "type": "string"
        }
      ],
      "stateMutability": "view",
      "type": "function"
    },
    {
      "inputs": [
        {
          "internalType": "uint256",
          "name": "tokenId",
          "type": "uint256"
        }
      ],
      "name": "tokenURI",
      "outputs": [
        {
          "internalType": "string",
          "name": "",
          "type": "string"
        }
      ],
      "stateMutability": "view",
      "type": "function"
    },
    {
      "inputs": [
        {
          "internalType": "address",
          "name": "from",
          "type": "address"
        },
        {
          "internalType": "address",
          "name": "to",
          "type": "address"
        },
        {
          "internalType": "uint256",
          "name": "tokenId",
          "type": "uint256"
        }
      ],
      "name": "transferFrom",
      "outputs": [],
      "stateMutability": "nonpayable",
      "type": "function"
    }
  ],
  "transactionHash": "0xcb593ca6e05a051e63f0cc2379c5a317af3551bd1e09fa306bd1059b43893e13",
  "args": [
    "<svg viewBox=\"0 0 200 200\" width=\"400\"  height=\"400\" xmlns=\"http://www.w3.org/2000/svg\">\n  <circle cx=\"100\" cy=\"100\" fill=\"yellow\" r=\"78\" stroke=\"black\" stroke-width=\"3\"/>\n  <g class=\"eyes\">\n    <circle cx=\"61\" cy=\"82\" r=\"12\"/>\n    <circle cx=\"127\" cy=\"82\" r=\"12\"/>\n  </g>\n  <path d=\"m136.81 116.53c.69 26.17-64.11 42-81.52-.73\" style=\"fill:none; stroke: black; stroke-width: 3;\"/>\n</svg>"
  ],
  "numDeployments": 1,
  "solcInputHash": "5109fc7b6d3ce91166a76970d0a514ce",
  "bytecode": "0x60806040523480156200001157600080fd5b50604051620035bf380380620035bf8339818101604052810190620000379190620004f9565b6040518060400160405280601b81526020017f547275737465642050726f6475637420436572746966696361746500000000008152506040518060400160405280600381526020017f54504300000000000000000000000000000000000000000000000000000000008152508160009081620000b4919062000795565b508060019081620000c6919062000795565b505050600060068190555033600760006101000a81548173ffffffffffffffffffffffffffffffffffffffff021916908373ffffffffffffffffffffffffffffffffffffffff16021790555062000123816200013b60201b60201c565b6008908162000133919062000795565b505062000a1b565b606060006200017683604051602001620001569190620008be565b604051602081830303815290604052620001d960201b62000b781760201c565b90506040518060400160405280601a81526020017f646174613a696d6167652f7376672b786d6c3b6261736536342c00000000000081525081604051602001620001c2929190620008d7565b604051602081830303815290604052915050919050565b60606000825103620001fd5760405180602001604052806000815250905062000361565b60006040518060600160405280604081526020016200357f60409139905060006003600285516200022f91906200092e565b6200023b919062000998565b6004620002499190620009d0565b905060006020826200025c91906200092e565b67ffffffffffffffff81111562000278576200027762000395565b5b6040519080825280601f01601f191660200182016040528015620002ab5781602001600182028036833780820191505090505b509050818152600183018586518101602084015b818310156200031c576003830192508251603f8160121c168501518253600182019150603f81600c1c168501518253600182019150603f8160061c168501518253600182019150603f8116850151825360018201915050620002bf565b6003895106600181146200033957600281146200034a5762000355565b613d3d60f01b600283035262000355565b603d60f81b60018303525b50505050508093505050505b919050565b6000604051905090565b600080fd5b600080fd5b600080fd5b600080fd5b6000601f19601f8301169050919050565b7f4e487b7100000000000000000000000000000000000000000000000000000000600052604160045260246000fd5b620003cf8262000384565b810181811067ffffffffffffffff82111715620003f157620003f062000395565b5b80604052505050565b60006200040662000366565b9050620004148282620003c4565b919050565b600067ffffffffffffffff82111562000437576200043662000395565b5b620004428262000384565b9050602081019050919050565b60005b838110156200046f57808201518184015260208101905062000452565b60008484015250505050565b6000620004926200048c8462000419565b620003fa565b905082815260208101848484011115620004b157620004b06200037f565b5b620004be8482856200044f565b509392505050565b600082601f830112620004de57620004dd6200037a565b5b8151620004f08482602086016200047b565b91505092915050565b60006020828403121562000512576200051162000370565b5b600082015167ffffffffffffffff81111562000533576200053262000375565b5b6200054184828501620004c6565b91505092915050565b600081519050919050565b7f4e487b7100000000000000000000000000000000000000000000000000000000600052602260045260246000fd5b600060028204905060018216806200059d57607f821691505b602082108103620005b357620005b262000555565b5b50919050565b60008190508160005260206000209050919050565b60006020601f8301049050919050565b600082821b905092915050565b6000600883026200061d7fffffffffffffffffffffffffffffffffffffffffffffffffffffffffffffffff82620005de565b620006298683620005de565b95508019841693508086168417925050509392505050565b6000819050919050565b6000819050919050565b600062000676620006706200066a8462000641565b6200064b565b62000641565b9050919050565b6000819050919050565b620006928362000655565b620006aa620006a1826200067d565b848454620005eb565b825550505050565b600090565b620006c1620006b2565b620006ce81848462000687565b505050565b5b81811015620006f657620006ea600082620006b7565b600181019050620006d4565b5050565b601f82111562000745576200070f81620005b9565b6200071a84620005ce565b810160208510156200072a578190505b620007426200073985620005ce565b830182620006d3565b50505b505050565b600082821c905092915050565b60006200076a600019846008026200074a565b1980831691505092915050565b600062000785838362000757565b9150826002028217905092915050565b620007a0826200054a565b67ffffffffffffffff811115620007bc57620007bb62000395565b5b620007c8825462000584565b620007d5828285620006fa565b600060209050601f8311600181146200080d5760008415620007f8578287015190505b62000804858262000777565b86555062000874565b601f1984166200081d86620005b9565b60005b82811015620008475784890151825560018201915060208501945060208101905062000820565b8683101562000867578489015162000863601f89168262000757565b8355505b6001600288020188555050505b505050505050565b600081905092915050565b600062000894826200054a565b620008a081856200087c565b9350620008b28185602086016200044f565b80840191505092915050565b6000620008cc828462000887565b915081905092915050565b6000620008e5828562000887565b9150620008f3828462000887565b91508190509392505050565b7f4e487b7100000000000000000000000000000000000000000000000000000000600052601160045260246000fd5b60006200093b8262000641565b9150620009488362000641565b9250828201905080821115620009635762000962620008ff565b5b92915050565b7f4e487b7100000000000000000000000000000000000000000000000000000000600052601260045260246000fd5b6000620009a58262000641565b9150620009b28362000641565b925082620009c557620009c462000969565b5b828204905092915050565b6000620009dd8262000641565b9150620009ea8362000641565b9250828202620009fa8162000641565b9150828204841483151762000a145762000a13620008ff565b5b5092915050565b612b548062000a2b6000396000f3fe608060405234801561001057600080fd5b50600436106100f55760003560e01c80636352211e11610097578063b88d4fde11610066578063b88d4fde14610296578063c2229fea146102b2578063c87b56dd146102bc578063e985e9c5146102ec576100f5565b80636352211e146101fc57806370a082311461022c57806395d89b411461025c578063a22cb4651461027a576100f5565b8063095ea7b3116100d3578063095ea7b31461017857806323b872dd1461019457806330d871c6146101b057806342842e0e146101e0576100f5565b806301ffc9a7146100fa57806306fdde031461012a578063081812fc14610148575b600080fd5b610114600480360381019061010f919061192f565b61031c565b6040516101219190611977565b60405180910390f35b6101326103fe565b60405161013f9190611a22565b60405180910390f35b610162600480360381019061015d9190611a7a565b610490565b60405161016f9190611ae8565b60405180910390f35b610192600480360381019061018d9190611b2f565b6104d6565b005b6101ae60048036038101906101a99190611b6f565b6105ed565b005b6101ca60048036038101906101c59190611cf7565b61064d565b6040516101d79190611a22565b60405180910390f35b6101fa60048036038101906101f59190611b6f565b6106da565b005b61021660048036038101906102119190611a7a565b6106fa565b6040516102239190611ae8565b60405180910390f35b61024660048036038101906102419190611d40565b610780565b6040516102539190611d7c565b60405180910390f35b610264610837565b6040516102719190611a22565b60405180910390f35b610294600480360381019061028f9190611dc3565b6108c9565b005b6102b060048036038101906102ab9190611ea4565b6108df565b005b6102ba610941565b005b6102d660048036038101906102d19190611a7a565b610a42565b6040516102e39190611a22565b60405180910390f35b61030660048036038101906103019190611f27565b610ae4565b6040516103139190611977565b60405180910390f35b60007f80ac58cd000000000000000000000000000000000000000000000000000000007bffffffffffffffffffffffffffffffffffffffffffffffffffffffff1916827bffffffffffffffffffffffffffffffffffffffffffffffffffffffff191614806103e757507f5b5e139f000000000000000000000000000000000000000000000000000000007bffffffffffffffffffffffffffffffffffffffffffffffffffffffff1916827bffffffffffffffffffffffffffffffffffffffffffffffffffffffff1916145b806103f757506103f682610cf0565b5b9050919050565b60606000805461040d90611f96565b80601f016020809104026020016040519081016040528092919081815260200182805461043990611f96565b80156104865780601f1061045b57610100808354040283529160200191610486565b820191906000526020600020905b81548152906001019060200180831161046957829003601f168201915b5050505050905090565b600061049b82610d5a565b6004600083815260200190815260200160002060009054906101000a900473ffffffffffffffffffffffffffffffffffffffff169050919050565b60006104e1826106fa565b90508073ffffffffffffffffffffffffffffffffffffffff168373ffffffffffffffffffffffffffffffffffffffff1603610551576040517f08c379a000000000000000000000000000000000000000000000000000000000815260040161054890612039565b60405180910390fd5b8073ffffffffffffffffffffffffffffffffffffffff16610570610da5565b73ffffffffffffffffffffffffffffffffffffffff16148061059f575061059e81610599610da5565b610ae4565b5b6105de576040517f08c379a00000000000000000000000000000000000000000000000000000000081526004016105d5906120cb565b60405180910390fd5b6105e88383610dad565b505050565b6105fe6105f8610da5565b82610e66565b61063d576040517f08c379a00000000000000000000000000000000000000000000000000000000081526004016106349061215d565b60405180910390fd5b610648838383610efb565b505050565b606060006106798360405160200161066591906121b9565b604051602081830303815290604052610b78565b90506040518060400160405280601a81526020017f646174613a696d6167652f7376672b786d6c3b6261736536342c000000000000815250816040516020016106c39291906121d0565b604051602081830303815290604052915050919050565b6106f5838383604051806020016040528060008152506108df565b505050565b600080610706836111f4565b9050600073ffffffffffffffffffffffffffffffffffffffff168173ffffffffffffffffffffffffffffffffffffffff1603610777576040517f08c379a000000000000000000000000000000000000000000000000000000000815260040161076e90612240565b60405180910390fd5b80915050919050565b60008073ffffffffffffffffffffffffffffffffffffffff168273ffffffffffffffffffffffffffffffffffffffff16036107f0576040517f08c379a00000000000000000000000000000000000000000000000000000000081526004016107e7906122d2565b60405180910390fd5b600360008373ffffffffffffffffffffffffffffffffffffffff1673ffffffffffffffffffffffffffffffffffffffff168152602001908152602001600020549050919050565b60606001805461084690611f96565b80601f016020809104026020016040519081016040528092919081815260200182805461087290611f96565b80156108bf5780601f10610894576101008083540402835291602001916108bf565b820191906000526020600020905b8154815290600101906020018083116108a257829003601f168201915b5050505050905090565b6108db6108d4610da5565b8383611231565b5050565b6108f06108ea610da5565b83610e66565b61092f576040517f08c379a00000000000000000000000000000000000000000000000000000000081526004016109269061215d565b60405180910390fd5b61093b8484848461139d565b50505050565b600760009054906101000a900473ffffffffffffffffffffffffffffffffffffffff1673ffffffffffffffffffffffffffffffffffffffff163373ffffffffffffffffffffffffffffffffffffffff16146109c8576040517f9dfd6ae400000000000000000000000000000000000000000000000000000000815260040160405180910390fd5b6109d4336006546113f9565b6001600660008282546109e79190612321565b925050819055503373ffffffffffffffffffffffffffffffffffffffff166001600654610a149190612355565b7f5ffdf26340d9e4424753c57d9f7a6776e891fa3d016ae057096c126d2470a3b760405160405180910390a3565b6060610a4d82611417565b610a83576040517f6df5edae00000000000000000000000000000000000000000000000000000000815260040160405180910390fd5b610a8b611458565b610abd610a966103fe565b6008604051602001610aa992919061260f565b604051602081830303815290604052610b78565b604051602001610ace9291906121d0565b6040516020818303038152906040529050919050565b6000600560008473ffffffffffffffffffffffffffffffffffffffff1673ffffffffffffffffffffffffffffffffffffffff16815260200190815260200160002060008373ffffffffffffffffffffffffffffffffffffffff1673ffffffffffffffffffffffffffffffffffffffff16815260200190815260200160002060009054906101000a900460ff16905092915050565b60606000825103610b9a57604051806020016040528060008152509050610ceb565b6000604051806060016040528060408152602001612adf6040913990506000600360028551610bc99190612321565b610bd3919061268e565b6004610bdf91906126bf565b90506000602082610bf09190612321565b67ffffffffffffffff811115610c0957610c08611bcc565b5b6040519080825280601f01601f191660200182016040528015610c3b5781602001600182028036833780820191505090505b509050818152600183018586518101602084015b81831015610caa576003830192508251603f8160121c168501518253600182019150603f81600c1c168501518253600182019150603f8160061c168501518253600182019150603f8116850151825360018201915050610c4f565b600389510660018114610cc45760028114610cd457610cdf565b613d3d60f01b6002830352610cdf565b603d60f81b60018303525b50505050508093505050505b919050565b60007f01ffc9a7000000000000000000000000000000000000000000000000000000007bffffffffffffffffffffffffffffffffffffffffffffffffffffffff1916827bffffffffffffffffffffffffffffffffffffffffffffffffffffffff1916149050919050565b610d6381611417565b610da2576040517f08c379a0000000000000000000000000000000000000000000000000000000008152600401610d9990612240565b60405180910390fd5b50565b600033905090565b816004600083815260200190815260200160002060006101000a81548173ffffffffffffffffffffffffffffffffffffffff021916908373ffffffffffffffffffffffffffffffffffffffff160217905550808273ffffffffffffffffffffffffffffffffffffffff16610e20836106fa565b73ffffffffffffffffffffffffffffffffffffffff167f8c5be1e5ebec7d5bd14f71427d1e84f3dd0314c0f7b2291e5b200ac8c7c3b92560405160405180910390a45050565b600080610e72836106fa565b90508073ffffffffffffffffffffffffffffffffffffffff168473ffffffffffffffffffffffffffffffffffffffff161480610eb45750610eb38185610ae4565b5b80610ef257508373ffffffffffffffffffffffffffffffffffffffff16610eda84610490565b73ffffffffffffffffffffffffffffffffffffffff16145b91505092915050565b8273ffffffffffffffffffffffffffffffffffffffff16610f1b826106fa565b73ffffffffffffffffffffffffffffffffffffffff1614610f71576040517f08c379a0000000000000000000000000000000000000000000000000000000008152600401610f6890612773565b60405180910390fd5b600073ffffffffffffffffffffffffffffffffffffffff168273ffffffffffffffffffffffffffffffffffffffff1603610fe0576040517f08c379a0000000000000000000000000000000000000000000000000000000008152600401610fd790612805565b60405180910390fd5b610fed8383836001611495565b8273ffffffffffffffffffffffffffffffffffffffff1661100d826106fa565b73ffffffffffffffffffffffffffffffffffffffff1614611063576040517f08c379a000000000000000000000000000000000000000000000000000000000815260040161105a90612773565b60405180910390fd5b6004600082815260200190815260200160002060006101000a81549073ffffffffffffffffffffffffffffffffffffffff02191690556001600360008573ffffffffffffffffffffffffffffffffffffffff1673ffffffffffffffffffffffffffffffffffffffff168152602001908152602001600020600082825403925050819055506001600360008473ffffffffffffffffffffffffffffffffffffffff1673ffffffffffffffffffffffffffffffffffffffff16815260200190815260200160002060008282540192505081905550816002600083815260200190815260200160002060006101000a81548173ffffffffffffffffffffffffffffffffffffffff021916908373ffffffffffffffffffffffffffffffffffffffff160217905550808273ffffffffffffffffffffffffffffffffffffffff168473ffffffffffffffffffffffffffffffffffffffff167fddf252ad1be2c89b69c2b068fc378daa952ba7f163c4a11628f55a4df523b3ef60405160405180910390a46111ef838383600161149b565b505050565b60006002600083815260200190815260200160002060009054906101000a900473ffffffffffffffffffffffffffffffffffffffff169050919050565b8173ffffffffffffffffffffffffffffffffffffffff168373ffffffffffffffffffffffffffffffffffffffff160361129f576040517f08c379a000000000000000000000000000000000000000000000000000000000815260040161129690612871565b60405180910390fd5b80600560008573ffffffffffffffffffffffffffffffffffffffff1673ffffffffffffffffffffffffffffffffffffffff16815260200190815260200160002060008473ffffffffffffffffffffffffffffffffffffffff1673ffffffffffffffffffffffffffffffffffffffff16815260200190815260200160002060006101000a81548160ff0219169083151502179055508173ffffffffffffffffffffffffffffffffffffffff168373ffffffffffffffffffffffffffffffffffffffff167f17307eab39ab6107e8899845ad3d59bd9653f200f220920489ca2b5937696c31836040516113909190611977565b60405180910390a3505050565b6113a8848484610efb565b6113b4848484846114a1565b6113f3576040517f08c379a00000000000000000000000000000000000000000000000000000000081526004016113ea90612903565b60405180910390fd5b50505050565b611413828260405180602001604052806000815250611628565b5050565b60008073ffffffffffffffffffffffffffffffffffffffff16611439836111f4565b73ffffffffffffffffffffffffffffffffffffffff1614159050919050565b60606040518060400160405280601c81526020017f646174613a6170706c69636174696f6e2f6a736f6e3b62617365363400000000815250905090565b50505050565b50505050565b60006114c28473ffffffffffffffffffffffffffffffffffffffff16611683565b1561161b578373ffffffffffffffffffffffffffffffffffffffff1663150b7a026114eb610da5565b8786866040518563ffffffff1660e01b815260040161150d9493929190612978565b6020604051808303816000875af192505050801561154957506040513d601f19601f8201168201806040525081019061154691906129d9565b60015b6115cb573d8060008114611579576040519150601f19603f3d011682016040523d82523d6000602084013e61157e565b606091505b5060008151036115c3576040517f08c379a00000000000000000000000000000000000000000000000000000000081526004016115ba90612903565b60405180910390fd5b805181602001fd5b63150b7a0260e01b7bffffffffffffffffffffffffffffffffffffffffffffffffffffffff1916817bffffffffffffffffffffffffffffffffffffffffffffffffffffffff191614915050611620565b600190505b949350505050565b61163283836116a6565b61163f60008484846114a1565b61167e576040517f08c379a000000000000000000000000000000000000000000000000000000000815260040161167590612903565b60405180910390fd5b505050565b6000808273ffffffffffffffffffffffffffffffffffffffff163b119050919050565b600073ffffffffffffffffffffffffffffffffffffffff168273ffffffffffffffffffffffffffffffffffffffff1603611715576040517f08c379a000000000000000000000000000000000000000000000000000000000815260040161170c90612a52565b60405180910390fd5b61171e81611417565b1561175e576040517f08c379a000000000000000000000000000000000000000000000000000000000815260040161175590612abe565b60405180910390fd5b61176c600083836001611495565b61177581611417565b156117b5576040517f08c379a00000000000000000000000000000000000000000000000000000000081526004016117ac90612abe565b60405180910390fd5b6001600360008473ffffffffffffffffffffffffffffffffffffffff1673ffffffffffffffffffffffffffffffffffffffff16815260200190815260200160002060008282540192505081905550816002600083815260200190815260200160002060006101000a81548173ffffffffffffffffffffffffffffffffffffffff021916908373ffffffffffffffffffffffffffffffffffffffff160217905550808273ffffffffffffffffffffffffffffffffffffffff16600073ffffffffffffffffffffffffffffffffffffffff167fddf252ad1be2c89b69c2b068fc378daa952ba7f163c4a11628f55a4df523b3ef60405160405180910390a46118bf60008383600161149b565b5050565b6000604051905090565b600080fd5b600080fd5b60007fffffffff0000000000000000000000000000000000000000000000000000000082169050919050565b61190c816118d7565b811461191757600080fd5b50565b60008135905061192981611903565b92915050565b600060208284031215611945576119446118cd565b5b60006119538482850161191a565b91505092915050565b60008115159050919050565b6119718161195c565b82525050565b600060208201905061198c6000830184611968565b92915050565b600081519050919050565b600082825260208201905092915050565b60005b838110156119cc5780820151818401526020810190506119b1565b60008484015250505050565b6000601f19601f8301169050919050565b60006119f482611992565b6119fe818561199d565b9350611a0e8185602086016119ae565b611a17816119d8565b840191505092915050565b60006020820190508181036000830152611a3c81846119e9565b905092915050565b6000819050919050565b611a5781611a44565b8114611a6257600080fd5b50565b600081359050611a7481611a4e565b92915050565b600060208284031215611a9057611a8f6118cd565b5b6000611a9e84828501611a65565b91505092915050565b600073ffffffffffffffffffffffffffffffffffffffff82169050919050565b6000611ad282611aa7565b9050919050565b611ae281611ac7565b82525050565b6000602082019050611afd6000830184611ad9565b92915050565b611b0c81611ac7565b8114611b1757600080fd5b50565b600081359050611b2981611b03565b92915050565b60008060408385031215611b4657611b456118cd565b5b6000611b5485828601611b1a565b9250506020611b6585828601611a65565b9150509250929050565b600080600060608486031215611b8857611b876118cd565b5b6000611b9686828701611b1a565b9350506020611ba786828701611b1a565b9250506040611bb886828701611a65565b9150509250925092565b600080fd5b600080fd5b7f4e487b7100000000000000000000000000000000000000000000000000000000600052604160045260246000fd5b611c04826119d8565b810181811067ffffffffffffffff82111715611c2357611c22611bcc565b5b80604052505050565b6000611c366118c3565b9050611c428282611bfb565b919050565b600067ffffffffffffffff821115611c6257611c61611bcc565b5b611c6b826119d8565b9050602081019050919050565b82818337600083830152505050565b6000611c9a611c9584611c47565b611c2c565b905082815260208101848484011115611cb657611cb5611bc7565b5b611cc1848285611c78565b509392505050565b600082601f830112611cde57611cdd611bc2565b5b8135611cee848260208601611c87565b91505092915050565b600060208284031215611d0d57611d0c6118cd565b5b600082013567ffffffffffffffff811115611d2b57611d2a6118d2565b5b611d3784828501611cc9565b91505092915050565b600060208284031215611d5657611d556118cd565b5b6000611d6484828501611b1a565b91505092915050565b611d7681611a44565b82525050565b6000602082019050611d916000830184611d6d565b92915050565b611da08161195c565b8114611dab57600080fd5b50565b600081359050611dbd81611d97565b92915050565b60008060408385031215611dda57611dd96118cd565b5b6000611de885828601611b1a565b9250506020611df985828601611dae565b9150509250929050565b600067ffffffffffffffff821115611e1e57611e1d611bcc565b5b611e27826119d8565b9050602081019050919050565b6000611e47611e4284611e03565b611c2c565b905082815260208101848484011115611e6357611e62611bc7565b5b611e6e848285611c78565b509392505050565b600082601f830112611e8b57611e8a611bc2565b5b8135611e9b848260208601611e34565b91505092915050565b60008060008060808587031215611ebe57611ebd6118cd565b5b6000611ecc87828801611b1a565b9450506020611edd87828801611b1a565b9350506040611eee87828801611a65565b925050606085013567ffffffffffffffff811115611f0f57611f0e6118d2565b5b611f1b87828801611e76565b91505092959194509250565b60008060408385031215611f3e57611f3d6118cd565b5b6000611f4c85828601611b1a565b9250506020611f5d85828601611b1a565b9150509250929050565b7f4e487b7100000000000000000000000000000000000000000000000000000000600052602260045260246000fd5b60006002820490506001821680611fae57607f821691505b602082108103611fc157611fc0611f67565b5b50919050565b7f4552433732313a20617070726f76616c20746f2063757272656e74206f776e6560008201527f7200000000000000000000000000000000000000000000000000000000000000602082015250565b600061202360218361199d565b915061202e82611fc7565b604082019050919050565b6000602082019050818103600083015261205281612016565b9050919050565b7f4552433732313a20617070726f76652063616c6c6572206973206e6f7420746f60008201527f6b656e206f776e6572206f7220617070726f76656420666f7220616c6c000000602082015250565b60006120b5603d8361199d565b91506120c082612059565b604082019050919050565b600060208201905081810360008301526120e4816120a8565b9050919050565b7f4552433732313a2063616c6c6572206973206e6f7420746f6b656e206f776e6560008201527f72206f7220617070726f76656400000000000000000000000000000000000000602082015250565b6000612147602d8361199d565b9150612152826120eb565b604082019050919050565b600060208201905081810360008301526121768161213a565b9050919050565b600081905092915050565b600061219382611992565b61219d818561217d565b93506121ad8185602086016119ae565b80840191505092915050565b60006121c58284612188565b915081905092915050565b60006121dc8285612188565b91506121e88284612188565b91508190509392505050565b7f4552433732313a20696e76616c696420746f6b656e2049440000000000000000600082015250565b600061222a60188361199d565b9150612235826121f4565b602082019050919050565b600060208201905081810360008301526122598161221d565b9050919050565b7f4552433732313a2061646472657373207a65726f206973206e6f74206120766160008201527f6c6964206f776e65720000000000000000000000000000000000000000000000602082015250565b60006122bc60298361199d565b91506122c782612260565b604082019050919050565b600060208201905081810360008301526122eb816122af565b9050919050565b7f4e487b7100000000000000000000000000000000000000000000000000000000600052601160045260246000fd5b600061232c82611a44565b915061233783611a44565b925082820190508082111561234f5761234e6122f2565b5b92915050565b600061236082611a44565b915061236b83611a44565b9250828203905081811115612383576123826122f2565b5b92915050565b7f7b226e616d65223a220000000000000000000000000000000000000000000000600082015250565b60006123bf60098361217d565b91506123ca82612389565b600982019050919050565b7f222c20226272616e64223a2258595a204a6577656c73222c202264657363726960008201527f7074696f6e223a2022416e206f6666696369616c206c75787572792070726f6460208201527f756374222c000000000000000000000000000000000000000000000000000000604082015250565b600061245760458361217d565b9150612462826123d5565b604582019050919050565b7f2261747472696275746573223a205b7b226d6174657269616c223a202264696160008201527f6d6f6e64222c2022636f6c6f757273223a205b2267726579222c22707572706c60208201527f65225d2c2022707572656e657373223a203130302c20227765696768745b675d60408201527f223a35307d5d2c2022696d616765223a22000000000000000000000000000000606082015250565b600061251560718361217d565b91506125208261246d565b607182019050919050565b60008190508160005260206000209050919050565b6000815461254d81611f96565b612557818661217d565b945060018216600081146125725760018114612587576125ba565b60ff19831686528115158202860193506125ba565b6125908561252b565b60005b838110156125b257815481890152600182019150602081019050612593565b838801955050505b50505092915050565b7f227d000000000000000000000000000000000000000000000000000000000000600082015250565b60006125f960028361217d565b9150612604826125c3565b600282019050919050565b600061261a826123b2565b91506126268285612188565b91506126318261244a565b915061263c82612508565b91506126488284612540565b9150612653826125ec565b91508190509392505050565b7f4e487b7100000000000000000000000000000000000000000000000000000000600052601260045260246000fd5b600061269982611a44565b91506126a483611a44565b9250826126b4576126b361265f565b5b828204905092915050565b60006126ca82611a44565b91506126d583611a44565b92508282026126e381611a44565b915082820484148315176126fa576126f96122f2565b5b5092915050565b7f4552433732313a207472616e736665722066726f6d20696e636f72726563742060008201527f6f776e6572000000000000000000000000000000000000000000000000000000602082015250565b600061275d60258361199d565b915061276882612701565b604082019050919050565b6000602082019050818103600083015261278c81612750565b9050919050565b7f4552433732313a207472616e7366657220746f20746865207a65726f2061646460008201527f7265737300000000000000000000000000000000000000000000000000000000602082015250565b60006127ef60248361199d565b91506127fa82612793565b604082019050919050565b6000602082019050818103600083015261281e816127e2565b9050919050565b7f4552433732313a20617070726f766520746f2063616c6c657200000000000000600082015250565b600061285b60198361199d565b915061286682612825565b602082019050919050565b6000602082019050818103600083015261288a8161284e565b9050919050565b7f4552433732313a207472616e7366657220746f206e6f6e20455243373231526560008201527f63656976657220696d706c656d656e7465720000000000000000000000000000602082015250565b60006128ed60328361199d565b91506128f882612891565b604082019050919050565b6000602082019050818103600083015261291c816128e0565b9050919050565b600081519050919050565b600082825260208201905092915050565b600061294a82612923565b612954818561292e565b93506129648185602086016119ae565b61296d816119d8565b840191505092915050565b600060808201905061298d6000830187611ad9565b61299a6020830186611ad9565b6129a76040830185611d6d565b81810360608301526129b9818461293f565b905095945050505050565b6000815190506129d381611903565b92915050565b6000602082840312156129ef576129ee6118cd565b5b60006129fd848285016129c4565b91505092915050565b7f4552433732313a206d696e7420746f20746865207a65726f2061646472657373600082015250565b6000612a3c60208361199d565b9150612a4782612a06565b602082019050919050565b60006020820190508181036000830152612a6b81612a2f565b9050919050565b7f4552433732313a20746f6b656e20616c7265616479206d696e74656400000000600082015250565b6000612aa8601c8361199d565b9150612ab382612a72565b602082019050919050565b60006020820190508181036000830152612ad781612a9b565b905091905056fe4142434445464748494a4b4c4d4e4f505152535455565758595a6162636465666768696a6b6c6d6e6f707172737475767778797a303132333435363738392b2fa26469706673582212201b1bd1f3938b4ed54cd3ee30c96482f9da9e078473e4d4008d3c4fb286eb22e864736f6c634300081200334142434445464748494a4b4c4d4e4f505152535455565758595a6162636465666768696a6b6c6d6e6f707172737475767778797a303132333435363738392b2f",
  "devdoc": {
    "events": {
      "Approval(address,address,uint256)": {
        "details": "Emitted when `owner` enables `approved` to manage the `tokenId` token."
      },
      "ApprovalForAll(address,address,bool)": {
        "details": "Emitted when `owner` enables or disables (`approved`) `operator` to manage all of its assets."
      },
      "Transfer(address,address,uint256)": {
        "details": "Emitted when `tokenId` token is transferred from `from` to `to`."
      }
    },
    "kind": "dev",
    "methods": {
      "approve(address,uint256)": {
        "details": "See {IERC721-approve}."
      },
      "balanceOf(address)": {
        "details": "See {IERC721-balanceOf}."
      },
      "getApproved(uint256)": {
        "details": "See {IERC721-getApproved}."
      },
      "isApprovedForAll(address,address)": {
        "details": "See {IERC721-isApprovedForAll}."
      },
      "name()": {
        "details": "See {IERC721Metadata-name}."
      },
      "ownerOf(uint256)": {
        "details": "See {IERC721-ownerOf}."
      },
      "safeTransferFrom(address,address,uint256)": {
        "details": "See {IERC721-safeTransferFrom}."
      },
      "safeTransferFrom(address,address,uint256,bytes)": {
        "details": "See {IERC721-safeTransferFrom}."
      },
      "setApprovalForAll(address,bool)": {
        "details": "See {IERC721-setApprovalForAll}."
      },
      "supportsInterface(bytes4)": {
        "details": "See {IERC165-supportsInterface}."
      },
      "symbol()": {
        "details": "See {IERC721Metadata-symbol}."
      },
      "tokenURI(uint256)": {
        "details": "See {IERC721Metadata-tokenURI}."
      },
      "transferFrom(address,address,uint256)": {
        "details": "See {IERC721-transferFrom}."
      }
    },
    "version": 1
  },
  "userdoc": {
    "kind": "user",
    "methods": {},
    "version": 1
  },
  "storageLayout": {
    "storage": [
      {
        "astId": 25,
        "contract": "contracts/ProductNft.sol:ProductNft",
        "label": "_name",
        "offset": 0,
        "slot": "0",
        "type": "t_string_storage"
      },
      {
        "astId": 27,
        "contract": "contracts/ProductNft.sol:ProductNft",
        "label": "_symbol",
        "offset": 0,
        "slot": "1",
        "type": "t_string_storage"
      },
      {
        "astId": 31,
        "contract": "contracts/ProductNft.sol:ProductNft",
        "label": "_owners",
        "offset": 0,
        "slot": "2",
        "type": "t_mapping(t_uint256,t_address)"
      },
      {
        "astId": 35,
        "contract": "contracts/ProductNft.sol:ProductNft",
        "label": "_balances",
        "offset": 0,
        "slot": "3",
        "type": "t_mapping(t_address,t_uint256)"
      },
      {
        "astId": 39,
        "contract": "contracts/ProductNft.sol:ProductNft",
        "label": "_tokenApprovals",
        "offset": 0,
        "slot": "4",
        "type": "t_mapping(t_uint256,t_address)"
      },
      {
        "astId": 45,
        "contract": "contracts/ProductNft.sol:ProductNft",
        "label": "_operatorApprovals",
        "offset": 0,
        "slot": "5",
        "type": "t_mapping(t_address,t_mapping(t_address,t_bool))"
      },
      {
        "astId": 2798,
        "contract": "contracts/ProductNft.sol:ProductNft",
        "label": "s_tokenCounter",
        "offset": 0,
        "slot": "6",
        "type": "t_uint256"
      },
      {
        "astId": 2800,
        "contract": "contracts/ProductNft.sol:ProductNft",
        "label": "s_owner",
        "offset": 0,
        "slot": "7",
        "type": "t_address"
      },
      {
        "astId": 2802,
        "contract": "contracts/ProductNft.sol:ProductNft",
        "label": "i_imageURI",
        "offset": 0,
        "slot": "8",
        "type": "t_string_storage"
      }
    ],
    "types": {
      "t_address": {
        "encoding": "inplace",
        "label": "address",
        "numberOfBytes": "20"
      },
      "t_bool": {
        "encoding": "inplace",
        "label": "bool",
        "numberOfBytes": "1"
      },
      "t_mapping(t_address,t_bool)": {
        "encoding": "mapping",
        "key": "t_address",
        "label": "mapping(address => bool)",
        "numberOfBytes": "32",
        "value": "t_bool"
      },
      "t_mapping(t_address,t_mapping(t_address,t_bool))": {
        "encoding": "mapping",
        "key": "t_address",
        "label": "mapping(address => mapping(address => bool))",
        "numberOfBytes": "32",
        "value": "t_mapping(t_address,t_bool)"
      },
      "t_mapping(t_address,t_uint256)": {
        "encoding": "mapping",
        "key": "t_address",
        "label": "mapping(address => uint256)",
        "numberOfBytes": "32",
        "value": "t_uint256"
      },
      "t_mapping(t_uint256,t_address)": {
        "encoding": "mapping",
        "key": "t_uint256",
        "label": "mapping(uint256 => address)",
        "numberOfBytes": "32",
        "value": "t_address"
      },
      "t_string_storage": {
        "encoding": "bytes",
        "label": "string",
        "numberOfBytes": "32"
      },
      "t_uint256": {
        "encoding": "inplace",
        "label": "uint256",
        "numberOfBytes": "32"
      }
    }
  }
}